:020000040800F2
:1000000000500020D14300085D4300086943000808
:100010006F430008754300087B43000800000000A0
:100020000000000000000000000000008143000804
:100030008D4300080000000099430008A543000814
:10004000194400081944000819440008194400081C
:10005000194400081944000819440008194400080C
:1000600019440008194400081944000819440008FC
:1000700019440008194400081944000819440008EC
:1000800019440008194400081944000819440008DC
:1000900019440008194400081944000819440008CC
:1000A00019440008194400081944000819440008BC
:1000B00019440008194400081944000819440008AC
:1000C000194400081944000819440008194400089C
:1000D00019440008B14300081944000819440008F5
:1000E00019440008194400081944000800000000E1
:1000F0000000000000000000000000000000000000
:0C01000000000000000000005FF808F1A3
:1001100010B5054C237833B9044B13B10448AFF341
:1001200000800123237010BD4C000020000000005F
:10013000306A000808B5034B1BB103490348AFF30D
:10014000008008BD0000000050000020306A000858
:10015000034613F8012B002AFBD1181A0138704707
:1001600081F0004102E000BF83F0004330B54FEA68
:1001700041044FEA430594EA050F08BF90EA020FD5
:100180001FBF54EA000C55EA020C7FEA645C7FEA68
:10019000655C00F0E2804FEA5454D4EB5555B8BF8B
:1001A0006D420CDD2C4480EA020281EA030382EAFC
:1001B000000083EA010180EA020281EA0303362D8E
:1001C00088BF30BD11F0004F4FEA01314FF4801C61
:1001D0004CEA113102D0404261EB410113F0004F73
:1001E0004FEA03334CEA133302D0524263EB43032A
:1001F00094EA050F00F0A780A4F10104D5F1200EC8
:100200000DDB02FA0EFC22FA05F2801841F1000122
:1002100003FA0EF2801843FA05F359410EE0A5F1F6
:1002200020050EF1200E012A03FA0EFC28BF4CF027
:10023000020C43FA05F3C01851EBE37101F00045DD
:1002400007D54FF0000EDCF1000C7EEB00006EEBEA
:100250000101B1F5801F1BD3B1F5001F0CD3490874
:100260005FEA30004FEA3C0C04F101044FEA4452CB
:1002700012F5800F80F09A80BCF1004F08BF5FEA52
:10028000500C50F1000041EB045141EA050130BD32
:100290005FEA4C0C404141EB010111F4801FA4F1D5
:1002A0000104E9D191F0000F04BF01460020B1FA2A
:1002B00081F308BF2033A3F10B03B3F120020CDA62
:1002C0000C3208DD02F1140CC2F10C0201FA0CF040
:1002D00021FA02F10CE002F11402D8BFC2F1200CA5
:1002E00001FA02F120FA0CFCDCBF41EA0C0190405B
:1002F000E41AA2BF01EB0451294330BD6FEA0404A4
:100300001F3C1CDA0C340EDC04F11404C4F120028E
:1003100020FA04F001FA02F340EA030021FA04F3A0
:1003200045EA030130BDC4F10C04C4F1200220FAF7
:1003300002F001FA04F340EA0300294630BD21FA35
:1003400004F0294630BD94F0000F83F4801306BFFB
:1003500081F480110134013D4EE77FEA645C18BFEF
:100360007FEA655C29D094EA050F08BF90EA020F86
:1003700005D054EA000C04BF1946104630BD91EA7E
:10038000030F1EBF0021002030BD5FEA545C05D181
:100390004000494128BF41F0004130BD14F58004C0
:1003A0003CBF01F5801130BD01F0004545F0FE4134
:1003B00041F470014FF0000030BD7FEA645C1ABF69
:1003C000194610467FEA655C1CBF0B46024650EAA0
:1003D000013406BF52EA033591EA030F41F40021CC
:1003E00030BD00BF90F0000F04BF0021704730B552
:1003F0004FF4806404F132044FF000054FF0000127
:1004000050E700BF90F0000F04BF0021704730B5E7
:100410004FF4806404F1320410F0004548BF4042BC
:100420004FF000013EE700BF42004FEAE2014FEA11
:1004300031014FEA02701FBF12F07F4393F07F4FEC
:1004400081F06051704732F07F4208BF704793F0EF
:100450007F4F04BF41F40021704730B54FF4607402
:1004600001F0004521F000411CE700BF50EA010205
:1004700008BF704730B54FF000050AE050EA0102AE
:1004800008BF704730B511F0004502D5404261EB1E
:1004900041014FF4806404F132045FEA915C3FF45F
:1004A000D8AE4FF003025FEADC0C18BF03325FEAFC
:1004B000DC0C18BF033202EBDC02C2F1200300FAAD
:1004C00003FC20FA02F001FA03FE40EA0E0021FAD2
:1004D00002F11444BDE600BF70B54FF0FF0C4CF4C0
:1004E000E06C1CEA11541DBF1CEA135594EA0C0F72
:1004F00095EA0C0F00F0DEF82C4481EA030621EAAD
:100500004C5123EA4C5350EA013518BF52EA0335E7
:1005100041F4801143F4801338D0A0FB02CE4FF099
:100520000005E1FB02E506F00042E0FB03E54FF0C9
:100530000006E1FB03569CF0000F18BF4EF0010EC1
:10054000A4F1FF04B6F5007F64F5407404D25FEABD
:100550004E0E6D4146EB060642EAC62141EA555170
:100560004FEAC52040EA5E504FEACE2EB4F1FD0CB2
:1005700088BFBCF5E06F1ED8BEF1004F08BF5FEA30
:10058000500E50F1000041EB045170BD06F00046E2
:1005900046EA010140EA020081EA0301B4EB5C048F
:1005A000C2BFD4EB0C0541EA045170BD41F4801187
:1005B0004FF0000E013C00F3AB8014F1360FDEBFAC
:1005C000002001F0004170BDC4F10004203C35DA88
:1005D0000C341BDC04F11404C4F1200500FA05F30B
:1005E00020FA04F001FA05F240EA020001F00042AC
:1005F00021F0004110EBD37021FA04F642EB060122
:100600005EEA430E08BF20EAD37070BDC4F10C044B
:10061000C4F1200500FA04F320FA05F001FA04F20F
:1006200040EA020001F0004110EBD37041F10001FB
:100630005EEA430E08BF20EAD37070BDC4F1200506
:1006400000FA05F24EEA020E20FA04F301FA05F26E
:1006500043EA020321FA04F001F0004121FA04F216
:1006600020EA020000EBD3705EEA430E08BF20EAE6
:10067000D37070BD94F0000F0FD101F00046400020
:1006800041EB010111F4801F08BF013CF7D041EAA2
:10069000060195F0000F18BF704703F000465200A6
:1006A00043EB030313F4801F08BF013DF7D043EA77
:1006B0000603704794EA0C0F0CEA135518BF95EA2D
:1006C0000C0F0CD050EA410618BF52EA4306D1D1B4
:1006D00081EA030101F000414FF0000070BD50EAD3
:1006E000410606BF1046194652EA430619D094EA5D
:1006F0000C0F02D150EA013613D195EA0C0F05D147
:1007000052EA03361CBF104619460AD181EA03019A
:1007100001F0004141F0FE4141F470014FF0000052
:1007200070BD41F0FE4141F4780170BD70B54FF0ED
:10073000FF0C4CF4E06C1CEA11541DBF1CEA13556D
:1007400094EA0C0F95EA0C0F00F0A7F8A4EB05044F
:1007500081EA030E52EA03354FEA013100F0888046
:100760004FEA03334FF0805545EA131343EA12630F
:100770004FEA022245EA111545EA10654FEA0026C4
:100780000EF000419D4208BF964244F1FD0404F57D
:10079000407402D25B084FEA3202B61A65EB0305D9
:1007A0005B084FEA32024FF480104FF4002CB6EB96
:1007B000020E75EB030E22BFB61A754640EA0C0016
:1007C0005B084FEA3202B6EB020E75EB030E22BF56
:1007D000B61A754640EA5C005B084FEA3202B6EB97
:1007E000020E75EB030E22BFB61A754640EA9C0056
:1007F0005B084FEA3202B6EB020E75EB030E22BF26
:10080000B61A754640EADC0055EA060E18D04FEAE3
:10081000051545EA16754FEA06164FEAC30343EA83
:1008200052734FEAC2025FEA1C1CC0D111F4801F50
:100830000BD141EA00014FF000004FF0004CB6E749
:1008400011F4801F04BF01430020B4F1FD0C88BFE8
:10085000BCF5E06F3FF6AFAEB5EB030C04BFB6EBF3
:10086000020C5FEA500C50F1000041EB045170BDE6
:100870000EF0004E4EEA113114EB5C04C2BFD4EB13
:100880000C0541EA045170BD41F480114FF0000E97
:10089000013C90E645EA060E8DE60CEA135594EA13
:1008A0000C0F08BF95EA0C0F3FF43BAF94EA0C0F16
:1008B0000AD150EA01347FF434AF95EA0C0F7FF48B
:1008C00025AF104619462CE795EA0C0F06D152EADF
:1008D00003353FF4FDAE1046194622E750EA4106C3
:1008E00018BF52EA43067FF4C5AE50EA41047FF4D4
:1008F0000DAF52EA43057FF4EBAE12E74FF0FF3C39
:1009000006E000BF4FF0010C02E000BF4FF0010C09
:100910004DF804CD4FEA410C7FEA6C5C4FEA430C82
:1009200018BF7FEA6C5C1BD001B050EA410C0CBFD1
:1009300052EA430C91EA030F02BF90EA020F002033
:10094000704710F1000F91EA030F58BF994208BF9A
:1009500090422CBFD8176FEAE37040F00100704757
:100960004FEA410C7FEA6C5C02D150EA013C07D1AE
:100970004FEA430C7FEA6C5CD6D152EA033CD3D0F9
:100980005DF8040B704700BF8446104662468C46F3
:100990001946634600E000BF01B5FFF7B7FF002826
:1009A00048BF10F1000F01BD4DF808EDFFF7F4FF4F
:1009B0000CBF012000205DF808FB00BF4DF808EDDA
:1009C000FFF7EAFF34BF012000205DF808FB00BFFD
:1009D0004DF808EDFFF7E0FF94BF012000205DF81F
:1009E00008FB00BF4DF808EDFFF7CEFF94BF0120D4
:1009F00000205DF808FB00BF4DF808EDFFF7C4FFCD
:100A000034BF012000205DF808FB00BF4FEA41021F
:100A100012F5001215D211D56FF47873B3EB625250
:100A200012D94FEAC12343F0004343EA505311F077
:100A3000004F23FA02F018BF404270474FF0000009
:100A4000704750EA013005D111F0004008BF6FF047
:100A5000004070474FF00000704700BF4FEA41026E
:100A6000B2F1E04324BFB3F5001CDCF1FE5C0DD90C
:100A700001F0004C4FEAC0024CEA5070B2F1004F56
:100A800040EB830008BF20F00100704711F0804F59
:100A900021D113F13872BCBF01F00040704741F41E
:100AA00080114FEA5252C2F11802C2F1200C10FA22
:100AB0000CF320FA02F018BF40F001004FEAC12306
:100AC0004FEAD32303FA0CFC40EA0C0023FA02F3AA
:100AD0004FEA4303CCE77FEA625307D150EA013380
:100AE0001EBF4FF0FE4040F44000704701F0004050
:100AF00040F0FE4040F40000704700BF80F000402E
:100B000002E000BF81F0004142001FBF5FEA4103E5
:100B100092EA030F7FEA226C7FEA236C6AD04FEAE5
:100B20001262D2EB1363C1BFD2184140484041402A
:100B3000B8BF5B42192B88BF704710F0004F40F4DC
:100B4000000020F07F4018BF404211F0004F41F4F8
:100B5000000121F07F4118BF494292EA030F3FD0C4
:100B6000A2F1010241FA03FC10EB0C00C3F12003D7
:100B700001FA03F100F0004302D5494260EB400066
:100B8000B0F5000F13D3B0F1807F06D340084FEAD1
:100B9000310102F10102FE2A51D2B1F1004F40EBC6
:100BA000C25008BF20F0010040EA0300704749002E
:100BB00040EB000010F4000FA2F10102EDD1B0FAF9
:100BC00080FCACF1080CB2EB0C0200FA0CF0AABFEE
:100BD00000EBC25052421843BCBFD040184370478C
:100BE00092F0000F81F4000106BF80F40000013292
:100BF000013BB5E74FEA41037FEA226C18BF7FEA69
:100C0000236C21D092EA030F04D092F0000F08BFAA
:100C10000846704790EA010F1CBF0020704712F091
:100C20007F4F04D1400028BF40F00040704712F1D0
:100C300000723CBF00F50000704700F0004343F035
:100C4000FE4040F4000070477FEA226216BF08466B
:100C50007FEA23630146420206BF5FEA412390EA2E
:100C6000010F40F4800070474FF0000304E000BF24
:100C700010F0004348BF40425FEA000C08BF7047D5
:100C800043F0964301464FF000001CE050EA010299
:100C900008BF70474FF000030AE000BF50EA0102AE
:100CA00008BF704711F0004302D5404261EB41019B
:100CB0005FEA010C02BF84460146002043F0B643C0
:100CC00008BFA3F18053A3F50003BCFA8CF2083AE5
:100CD000A3EBC25310DB01FA02FC634400FA02FCEE
:100CE000C2F12002BCF1004F20FA02F243EB0200F5
:100CF00008BF20F00100704702F1200201FA02FC57
:100D0000C2F1200250EA4C0021FA02F243EB020049
:100D100008BF20EADC7070474FF0FF0C1CEAD0528D
:100D20001EBF1CEAD15392EA0C0F93EA0C0F6FD04E
:100D30001A4480EA010C400218BF5FEA41211ED02C
:100D40004FF0006343EA501043EA5111A0FB013118
:100D50000CF00040B1F5000F3EBF490041EAD371ED
:100D60005B0040EA010062F17F02FD2A1DD8B3F169
:100D7000004F40EBC25008BF20F00100704790F0D8
:100D8000000F0CF0004C08BF49024CEA502040EA2A
:100D900051207F3AC2BFD2F1FF0340EAC2507047F0
:100DA00040F400004FF00003013A5DDC12F1190F2E
:100DB000DCBF00F000407047C2F10002410021FAA0
:100DC00002F1C2F1200200FA02FC5FEA310040F1B8
:100DD000000053EA4C0308BF20EADC70704792F031
:100DE000000F00F0004C02BF400010F4000F013A69
:100DF000F9D040EA0C0093F0000F01F0004C02BF64
:100E0000490011F4000F013BF9D041EA0C018FE7D2
:100E10000CEAD15392EA0C0F18BF93EA0C0F0AD0D8
:100E200030F0004C18BF31F0004CD8D180EA0100FE
:100E300000F00040704790F0000F17BF90F0004F97
:100E4000084691F0000F91F0004F14D092EA0C0F79
:100E500001D142020FD193EA0C0F03D14B0218BF0C
:100E6000084608D180EA010000F0004040F0FE4052
:100E700040F40000704740F0FE4040F440007047EE
:100E80004FF0FF0C1CEAD0521EBF1CEAD15392EA6D
:100E90000C0F93EA0C0F69D0A2EB030280EA010C5D
:100EA00049024FEA402037D04FF0805343EA1111F6
:100EB00043EA10130CF000408B4238BF5B0042F154
:100EC0007D024FF4000C8B4224BF5B1A40EA0C00F9
:100ED000B3EB510F24BFA3EB510340EA5C00B3EB2B
:100EE000910F24BFA3EB910340EA9C00B3EBD10F19
:100EF00024BFA3EBD10340EADC001B0118BF5FEA6B
:100F00001C1CE0D1FD2A3FF650AF8B4240EBC25093
:100F100008BF20F0010070470CF0004C4CEA502054
:100F20007F32C2BFD2F1FF0340EAC250704740F4A3
:100F300000004FF00003013A37E792F0000F00F095
:100F4000004C02BF400010F4000F013AF9D040EA13
:100F50000C0093F0000F01F0004C02BF490011F4A7
:100F6000000F013BF9D041EA0C0195E70CEAD1539F
:100F700092EA0C0F08D142027FF47DAF93EA0C0F86
:100F80007FF470AF084676E793EA0C0F04D14B026A
:100F90003FF44CAF08466EE730F0004C18BF31F01C
:100FA000004CCAD130F000427FF45CAF31F0004316
:100FB0007FF43CAF5FE700BF4FEA4002B2F1FE4F63
:100FC0000FD34FF09E03B3EB12620DD94FEA00230B
:100FD00043F0004310F0004F23FA02F018BF4042E4
:100FE00070474FF00000704712F1610F01D14202CB
:100FF00005D110F0004008BF6FF0004070474FF07F
:101000000000704780B400AF034B1B881BB218462A
:10101000BD4680BC704700BFCC00002080B400AF4C
:10102000034B5B881BB21846BD4680BC704700BFAF
:10103000CC00002080B582B000AF0346FB800B4699
:10104000BB8013467B80B7F90630002B1EDBB7F957
:101050000430002B1ADBFFF7D5FF03461A46B7F919
:101060000630934212DCFFF7D9FF03461A46B7F960
:10107000043093420ADCF888B988FA88BB8802F009
:1010800055F87B88184601F00BFF00E000BF0837D9
:10109000BD4680BD90B585B000AF044608461146F8
:1010A0001A462346FB800346BB800B467B801346D3
:1010B0003B80B7F90230002B08DA7B885B429BB299
:1010C0007B80FA887B88D31A9BB2FB80FA887B8866
:1010D00013449BB2FB81B7F90630002B01DA0023E1
:1010E000FB80FFF78FFF03461A46B7F90E30934295
:1010F00003DDFFF787FF0346FB81FA89FB88D31ADC
:101100009BB27B80B7F90030002B08DA3B885B424A
:101110009BB23B80BA883B88D31A9BB2BB80BA880B
:101120003B8813449BB2FB81B7F90430002B01DAF2
:101130000023BB80FFF772FF03461A46B7F90E3053
:10114000934203DDFFF76AFF0346FB81FA89BB8800
:10115000D31A9BB23B80F888B988FA887B881344FD
:101160009BB2013B9CB2BA883B8813449BB2013BC3
:101170009BB2224601F0DAFFB7F90020B7F902303E
:101180009A4214DD3B88FB817B883B80FB897B8016
:101190000DE07B88FB813B8C184601F081FEFB89CA
:1011A000013B9BB2FB81B7F90E30002BF3D1B7F9AD
:1011B00000309AB2013A92B23A80002BE9DC00BFCB
:1011C0001437BD4690BD80B483B000AF78600B4645
:1011D000FB707B685A68FB78DB00134418460C37B9
:1011E000BD4680BC704780B483B000AF78607B6838
:1011F0001B6818460C37BD4680BC704780B483B06E
:1012000000AF03460A46FB801346BB80054AFB88B5
:101210001380054ABB88138000BF0C37BD4680BCD5
:10122000704700BFBC0000208400002080B483B061
:1012300000AF0346FB80064AFB881380044B1A88E4
:10124000044B1A8000BF0C37BD4680BC704700BFFE
:10125000C4000020C800002080B483B000AF034663
:101260000A46FB801346BB80164AFB881380164A49
:10127000BB881380154B00221A70154B00221A8070
:10128000134BB3F90020134B1A80134B01221A7031
:10129000114B1A78114B1A70114B4FF6FF721A80CE
:1012A0000F4B1A880F4B1A800F4B01221A700F4BED
:1012B00000221A700E4B00221A6000BF0C37BD4688
:1012C00080BC7047B8000020C0000020A2000020B1
:1012D000BC00002084000020C700002090000020F7
:1012E000C4000020C8000020BE000020A60000208E
:1012F0008C00002090B589B000AF04460846114626
:101300001A462346FB800346BB800B467B80134670
:101310003B80B7F90020B7F90430D31A83EAE372AF
:10132000A2EBE372B7F90210B7F90630CB1A002B23
:10133000B8BF5B429A42CCBF01230023DBB27B8360
:10134000B7F91A30002B0BD0FB883B83BB88FB809E
:101350003B8BBB807B88FB823B887B80FB8A3B800E
:10136000B7F90620B7F902309A420BDDFB88BB8241
:101370007B88FB80BB8A7B80BB887B823B88BB8071
:101380007B8A3B807A88FB88D31A9BB23B82B7F971
:101390000020B7F90430D31A002BB8BF5B42FB81A1
:1013A000B7F91030DA0F13445B10FB83B7F9042050
:1013B000B7F900309A4202DA0123BB8331E04FF6DD
:1013C000FF73BB832DE0B7F91A30002B08D03A8E9B
:1013D000B7F90610B7F90430184600F032F807E004
:1013E0003A8EB7F90410B7F90630184600F029F81C
:1013F000FA8BFB89D31A9BB2FB83B7F91E30002B03
:1014000009DABA88BB8B13449BB2BB80FA8B3B8A48
:1014100013449BB2FB83B7F906309BB201339BB2F6
:10142000FB80B7F90620B7F902309A42CBDD00BF46
:101430002437BD4690BD80B400AF00BFBD4680BC20
:10144000704780B582B000AF0346FB800B46BB807F
:1014500013467B807A88B7F90410B7F9063018462E
:10146000FFF7E8FD00BF0837BD4680BD90B583B0EB
:1014700000AF0446084611461A462346FB80034641
:10148000BB800B467B8013463B803B88B7F902202C
:10149000B7F90410B7F9060000F046F800BF0C37A2
:1014A000BD4690BD90B583B000AF044608461146D6
:1014B0001A462346FB800346BB800B467B801346BF
:1014C0003B803B88B7F90220B7F90410B7F9060052
:1014D00000F053F800BF0C37BD4690BD90B585B005
:1014E00002AF0446084611461A462346FB800346CF
:1014F000BB800B467B8013463B80B7F90040B7F9B1
:101500000220B7F90410B7F906003B8B009323467D
:10151000FFF7C0FD00BF0C37BD4690BD80B400AFE3
:1015200000BFBD4680BC704790B585B002AF044691
:10153000084611461A462346FB800346BB800B46ED
:101540007B8013463B80FFF776FFBA887B88134485
:101550009BB2013B9BB21CB2B7F90620B7F904104D
:10156000B7F906003B8800932346FFF7C3FEFFF759
:10157000D5FF00BF0C37BD4690BD90B585B002AF1A
:101580000446084611461A462346FB800346BB80A4
:101590000B467B8013463B80FFF74DFFFA887B8824
:1015A00013449BB2013B9BB21AB2B7F90440B7F99E
:1015B0000410B7F906003B8800932346FFF79AFE14
:1015C000FFF7ACFF00BF0C37BD4690BD80B584B0BF
:1015D00002AF0346FB80084BB3F90020074BB3F979
:1015E0000010FB8800930B4600210020FFF752FDFE
:1015F00000BF0837BD4680BDB8000020C0000020F5
:1016000090B587B002AF0446084611461A462346F5
:10161000FB800346BB800B467B8013463B80B7F9BB
:101620000620B7F902309A421AD1B7F90420B7F967
:1016300000309A4205DDBB88BB813B88BB80BB89FB
:101640003B803A88BB88D31A9BB201339BB21AB253
:101650003B8CB7F90410B7F90600FFF765FF31E0DE
:10166000B7F90420B7F900309A421AD1B7F9062029
:10167000B7F902309A4205DDFB88FB817B88FB804D
:10168000FB897B807A88FB88D31A9BB201339BB29B
:101690001AB23B8CB7F90410B7F90600FFF76DFFDB
:1016A00010E0FFF7C8FEB7F90040B7F90220B7F91C
:1016B0000410B7F906003B8C00932346FFF71AFE8F
:1016C000FFF72CFF00BF1437BD4690BD90B587B023
:1016D00000AF0446084611461A462346FB800346DF
:1016E000BB800B467B8013463B807B88C3F10103A4
:1016F0009BB2FB820123BB827B881A46D203D31A9A
:101700005B009BB27B8200233B827B88FB81FFF7DF
:1017100092FEBA887B8813449BB219B23A88B7F913
:1017200006301846FFF78DFEBA887B88D31A9BB225
:1017300019B23A88B7F906301846FFF782FEFA88E0
:101740007B8813449BB21BB23A88B7F90410184641
:10175000FFF777FEFA887B88D31A9BB21BB23A88D0
:10176000B7F904101846FFF76CFE91E0B7F9163090
:10177000002B0EDBB7F90E309BB2013B9BB2FB8115
:101780007B8A02339BB27B82FA8A7B8A13449BB2A8
:10179000FB82B7F910309BB201339BB23B82BB8A0C
:1017A00002339BB2BB82FA8ABB8A13449BB2FB8290
:1017B000FA883B8A13449BB218B2BA88FB89134457
:1017C0009BB21BB23A881946FFF73BFEFA883B8A68
:1017D000D31A9BB218B2BA88FB8913449BB21BB2CE
:1017E0003A881946FFF72DFEFA883B8A13449BB2CC
:1017F00018B2BA88FB89D31A9BB21BB23A88194631
:10180000FFF71FFEFA883B8AD31A9BB218B2BA8838
:10181000FB89D31A9BB21BB23A881946FFF711FE17
:10182000FA88FB8913449BB218B2BA883B8A1344E6
:101830009BB21BB23A881946FFF703FEFA88FB8970
:10184000D31A9BB218B2BA883B8A13449BB21BB21C
:101850003A881946FFF7F5FDFA88FB8913449BB2D5
:1018600018B2BA883B8AD31A9BB21BB23A8819467F
:10187000FFF7E7FDFA88FB89D31A9BB218B2BA8842
:101880003B8AD31A9BB21BB23A881946FFF7D9FD9F
:10189000B7F91020B7F90E309A42FFF667AFFFF79D
:1018A0003DFE00BF1C37BD4690BD90B587B000AF70
:1018B0000446084611461A462346FB800346BB8071
:1018C0000B467B8013467B707B88C3F101039BB280
:1018D000FB820123BB827B881A46D203D31A5B00AA
:1018E0009BB27B8200233B827B88FB81A5E0B7F91A
:1018F0001630002B0EDBB7F90E309BB2013B9BB2CA
:10190000FB817B8A02339BB27B82FA8A7B8A1344F7
:101910009BB2FB82B7F910309BB201339BB23B8282
:10192000BB8A02339BB2BB82FA8ABB8A13449BB246
:10193000FB827B7803F00403002B1BD0FA883B8AE0
:1019400013449BB218B2BA88FB8913449BB21BB2F2
:101950003A8D1946FFF775FDFA88FB8913449BB24F
:1019600018B2BA883B8A13449BB21BB23A8D19460F
:10197000FFF767FD7B7803F00203002B1BD0FA888A
:101980003B8A13449BB218B2BA88FB89D31A9BB224
:101990001BB23A8D1946FFF754FDFA88FB891344B0
:1019A0009BB218B2BA883B8AD31A9BB21BB23A8D4B
:1019B0001946FFF746FD7B7803F00803002B1BD088
:1019C000FA88FB89D31A9BB218B2BA883B8A1344AF
:1019D0009BB21BB23A8D1946FFF733FDFA883B8A5A
:1019E000D31A9BB218B2BA88FB8913449BB21BB2BC
:1019F0003A8D1946FFF725FD7B7803F00103002B94
:101A00001BD0FA88FB89D31A9BB218B2BA883B8ADA
:101A1000D31A9BB21BB23A8D1946FFF712FDFA8812
:101A20003B8AD31A9BB218B2BA88FB89D31A9BB2ED
:101A30001BB23A8D1946FFF704FDB7F91020B7F92C
:101A40000E309A42FFF653AF00BF1C37BD4690BD23
:101A500090B585B002AF0446084611461A462346A3
:101A6000FB800346BB800B467B8013463B80FFF721
:101A7000E2FCBA887B88D31A9BB219B27B885B00E0
:101A80009BB201339BB21AB23B88B7F90600FFF74D
:101A9000EDFCB7F90220B7F90410B7F906003B884E
:101AA000019300230093032300F006F8FFF736FDAF
:101AB00000BF0C37BD4690BD90B587B000AF04465F
:101AC000084611461A462346FB800346BB800B4658
:101AD0007B8013467B707B88C3F101039BB2FB8242
:101AE0000123BB827B881A46D203D31A5B009BB2C8
:101AF0007B8200233B827B88FB813B8ABB81FB8905
:101B00007B81B7F928309BB201339BB23B8596E0CD
:101B1000B7F91630002B0EDBB7F90E309BB2013B44
:101B20009BB2FB817B8A02339BB27B82FA8A7B8ADF
:101B300013449BB2FB82B7F910309BB201339BB2C6
:101B40003B82BB8A02339BB2BB82FA8ABB8A1344B4
:101B50009BB2FB82B7F91020B7F90E3001339A42DD
:101B600031DA7B7803F00103002B13D0FA883B8A2B
:101B700013449BB218B2BA88FB89D31A9BB219B22C
:101B8000FB895B009AB23B8D13449BB21AB2BB8DAA
:101B9000FFF76CFC7B7803F00203002B13D0FA886C
:101BA0003B8AD31A9BB218B2BA88FB89D31A9BB26C
:101BB00019B2FB895B009AB23B8D13449BB21AB2F7
:101BC000BB8DFFF753FCB7F90E20B7F90A309A42E4
:101BD00033D07B7803F00103002B13D0FA887B8984
:101BE00013449BB218B2BA88BB89D31A9BB219B2FC
:101BF000BB895B009AB23B8D13449BB21AB2BB8D7A
:101C0000FFF734FC7B7803F00203002B13D0FA8833
:101C10007B89D31A9BB218B2BA88BB89D31A9BB2FC
:101C200019B2BB895B009AB23B8D13449BB21AB2C6
:101C3000BB8DFFF71BFCFB897B813B8ABB81B7F91E
:101C40001020B7F90E309A42FFF662AF00BF1C3782
:101C5000BD4690BD90B587B002AF04460846114618
:101C60001A462346FB800346BB800B467B80134607
:101C70003B80B7F90020B7F902309342A8BF134662
:101C80001BB2DA0F13445B10FB81B7F92020B7F9C0
:101C90000E309A4201DDFB893B84FFF7CCFBFA88CA
:101CA0003B8C13449BB218B27A883B8C5B009BB28E
:101CB000D31A9BB21AB2BB8CB7F90410FFF7F2FB30
:101CC000FA883B8C13449BB218B2BA883B88134401
:101CD0009BB2013B9BB219B27A883B8C5B009BB2F2
:101CE000D31A9BB21AB2BB8CFFF7DCFBBA883B8CD1
:101CF00013449BB219B23A883B8C5B009BB2D31A57
:101D00009BB21AB2BB8CB7F90600FFF7AFFBFA889B
:101D10007B8813449BB2013B9BB218B2BA883B8CC0
:101D200013449BB219B23A883B8C5B009BB2D31A26
:101D30009BB21AB2BB8CFFF799FBFA883B8C134419
:101D40009BB218B2BA883B8C13449BB219B2B7F954
:101D50002020BB8C00930123FFF7A7FDFA887B8826
:101D600013449AB23B8CD31A9BB2013B9BB218B27C
:101D7000BA883B8C13449BB219B2B7F92020BB8CB4
:101D800000930223FFF791FDFA887B8813449AB2EF
:101D90003B8CD31A9BB2013B9BB218B2BA883B88EA
:101DA00013449AB23B8CD31A9BB2013B9BB219B23B
:101DB000B7F92020BB8C00930423FFF776FDFA8847
:101DC0003B8C13449BB218B2BA883B8813449AB236
:101DD0003B8CD31A9BB2013B9BB219B2B7F92020BE
:101DE000BB8C00930823FFF760FDFFF797FB00BF54
:101DF0001437BD4690BD90B587B002AF0446084683
:101E000011461A462346FB800346BB800B467B8067
:101E100013463B80B7F90020B7F902309342A8BFC0
:101E200013461BB2DA0F13445B10FB81B7F9202075
:101E3000B7F90E309A4201DDFB893B84FFF7FBFACC
:101E4000FA883B8C13449BB218B27A883B8C5B00B7
:101E50009BB2D31A9BB21AB2B7F90040B7F904107B
:101E6000BB8C00932346FFF739FBFA887B88134429
:101E70009AB23B8CD31A9BB2013B9BB218B2BA8880
:101E80003B8C13449BB219B23A883B8C5B009BB2EB
:101E9000D31A9BB2013B9BB21BB2B7F92040BA8C5C
:101EA0000192009301232246FFF706FEFA883B8C3D
:101EB00013449BB218B2BA883B8C13449BB219B23C
:101EC0003A883B8C5B009BB2D31A9BB2013B9BB21E
:101ED0001BB2B7F92040BA8C01920093022322462C
:101EE000FFF7EAFDFFF71AFB00BF1437BD4690BDB0
:101EF00080B58CB000AFBA607B600346FB810B46B7
:101F0000BB81BB68012B40F3FF807B68012B40F352
:101F1000FD80BB68BA6802FB03F33B627B687A68AA
:101F200002FB03F3FB613B6A9B00BB61FB699B0007
:101F30007B610023FB627B68BB62FB695A007B68A4
:101F40005B00C3F10103396A01FB03F313447B62B5
:101F50005AE0FB6A9AB2FB8913449BB218B2BB6A7F
:101F60009AB2BB8913449BB21BB23A8F1946FFF752
:101F700068FAFA89FB6A9BB2D31A9BB218B2BB6AA1
:101F80009AB2BB8913449BB21BB23A8F1946FFF732
:101F900058FAFA89FB6A9BB2D31A9BB218B2BA8973
:101FA000BB6A9BB2D31A9BB21BB23A8F1946FFF79A
:101FB00048FAFB6A9AB2FB8913449BB218B2BA89F9
:101FC000BB6A9BB2D31A9BB21BB23A8F1946FFF77A
:101FD00038FA7B6A002B0BDBBB6AC3F10103BA69D9
:101FE00002FB03F37A6A13447B62BB6A013BBB6268
:101FF000FB6A9B000633FA6902FB03F37A6A134417
:102000007B62FB6A0133FB62FB69FA6A02FB03F243
:102010003B6AB96A01FB03F39A429ADDBB68FB6233
:102020000023BB623B6A5A00BB685B00C3F101033B
:10203000F96901FB03F313447B625AE0FB6A9AB22D
:10204000FB8913449BB218B2BB6A9AB2BB89134492
:102050009BB21BB23A8F1946FFF7F3F9FA89FB6A74
:102060009BB2D31A9BB218B2BB6A9AB2BB89134413
:102070009BB21BB23A8F1946FFF7E3F9FA89FB6A64
:102080009BB2D31A9BB218B2BA89BB6A9BB2D31A5D
:102090009BB21BB23A8F1946FFF7D3F9FB6A9AB28B
:1020A000FB8913449BB218B2BA89BB6A9BB2D31A9C
:1020B0009BB21BB23A8F1946FFF7C3F97B6A002B1C
:1020C0000BDBFB6AC3F101037A6902FB03F37A6A53
:1020D00013447B62FB6A013BFB62BB6A9B000633D5
:1020E0003A6A02FB03F37A6A13447B62BB6A0133E8
:1020F000BB623B6ABA6A02FB03F2FB69F96A01FB45
:1021000003F39A429ADD02E000BF00E000BF3037DF
:10211000BD4680BD0000000090B591B002AFF860F0
:10212000B9607A603B6000237B630023BB620023BD
:102130003B6300237B6200233B620023FB6100239F
:10214000BB614FF000037B614FF000033B61B86C53
:10215000FEF758F958A3D3E90023FEF7BDF903466B
:102160000C46184621464FF00002554BFEF7DEFAAA
:1021700003460C461846214603F03AFC03460C463B
:1021800018462146FEF76AFC03467B61B86CFEF7F1
:1021900039F949A3D3E90023FEF79EF903460C461B
:1021A000184621464FF00002454BFEF7BFFA0346A2
:1021B0000C461846214603F051FC03460C461846CF
:1021C0002146FEF74BFC03463B617868FEF750FD65
:1021D000034679691846FEF79FFD03461846FEF749
:1021E000EBFE0346FB617868FEF742FD0346396962
:1021F0001846FEF791FD03461846FEF7DDFE03463E
:10220000BB61BB6C5A2B02DDBB6CB32B07DDBB6C17
:10221000B3F5877F05DDBB6CB3F5B47F01DA01232D
:102220007B630023FB623CE0FA68FB6A1344BB62F9
:102230007B6B002B04D0BA68FB6A13443B6303E05A
:10224000BA68FB6AD31A3B63BA6AFB6913447B62C0
:102250003A6BBB6913443B62BB6A18B23B6B19B261
:102260007B6A1AB23B6A1CB2FB6C9BB2009323469A
:10227000FFF7C6F9BB6A18B23B6B9BB201339BB246
:1022800019B27B6A1AB23B6A9BB201339BB21CB291
:10229000FB6C9BB200932346FFF7B2F9FB6A013354
:1022A000FB62FA6A3B689A42BEDB00BF3C37BD4620
:1022B00090BD00BFAFF300801F85EB51B81E0940F1
:1022C0000080664080B586B000AFBA601A4603460B
:1022D000FB810B46BB811346FB80FFF7ACF8002364
:1022E000FB8231E00023BB821CE0FA89BB8A1344E5
:1022F0009BB218B2B7F91630B7F9062002FB03F209
:10230000B7F9143013445B00BA6813441A88B7F95C
:102310000C301946FFF795F8B7F914309BB201332A
:102320009BB2BB82B7F91420B7F906309A42DCDBC6
:10233000B7F916309BB201339BB2FB82B7F90C3070
:102340009BB201339BB2BB81B7F91620B7F920309D
:102350009A42C7DBFFF7E2F800BF1837BD4680BDE1
:1023600090B58DB002AF0446084611461A46234682
:10237000FB800346BB800B46FB7013463B80B84B8B
:102380001B68002B40F02681B64BB3F90030B7F93B
:1023900006209A4280F2EC81B34BB3F90030B7F9D2
:1023A00004209A4280F2E481B7F9061097F83C20A5
:1023B00013465B0013445B000B44013B002BC0F24F
:1023C000D781B7F9042097F84030DB001344013B74
:1023D000002BC0F2CD81A54B1B7883F00103DBB24B
:1023E000002B05D0FB78AF2B02D9FB780133FB70B3
:1023F000FFF721F8002387F82730B1E0FA78134679
:102400009B001A4497F927301344994AD35C87F804
:102410002630002387F8253096E097F8263003F021
:102420000103002B40D097F83C30012B16D197F8D0
:102430004030012B12D197F927309AB2FB88134410
:102440009BB218B297F925309AB2BB8813449BB25D
:102450001BB23A881946FEF7F4FF69E097F9273076
:102460009BB297F83C2092B202FB03F39AB2FB882E
:1024700013449BB218B297F925309BB297F84020CD
:1024800092B202FB03F39AB2BB8813449BB219B217
:1024900097F83C301AB297F840301CB23B88009352
:1024A0002346FFF71BF843E03A8F3B889A423FD020
:1024B00097F83C30012B16D197F84030012B12D100
:1024C00097F927309AB2FB8813449BB218B297F958
:1024D00025309AB2BB8813449BB21BB23A8F19467F
:1024E000FEF7AFFF24E097F927309BB297F83C2026
:1024F00092B202FB03F39AB2FB8813449BB218B268
:1025000097F925309BB297F8402092B202FB03F373
:102510009AB2BB8813449BB219B297F83C301AB2F6
:1025200097F840301CB23B8F00932346FEF7D6FF4E
:1025300097F92530DBB20133DBB287F8253097F805
:1025400026305B0887F8263097F92530072B7FF770
:1025500064AF97F92730DBB20133DBB287F827305D
:1025600097F92730042B7FF749AF3A8F3B889A427F
:102570002DD097F83C30012B0ED197F84030012B2D
:102580000AD1FB8805339BB218B23B8FB7F9041010
:102590000822FEF76BFF1AE097F83C309BB21A4610
:1025A000920013449AB2FB8813449BB218B297F876
:1025B0003C301AB297F840309BB2DB009BB21CB2A1
:1025C000B7F904103B8F00932346FEF787FFFEF711
:1025D000A5FFCEE0224B1B6808331B78FA78D31A8C
:1025E000FB701F4B1B68FA7811461846FEF7EBFD8F
:1025F00078611B4B1B681846FEF7F5FD38617B6957
:102600001B887B847B699B78FB737B69DB78BB735E
:102610007B6905331B787B737B6906331B783B73BF
:102620000023FB770023BB770023BB8300237B833E
:1026300097F83C30012B03D897F84030012B05D98F
:1026400097F90D30BB8397F90C307B83FEF7F3FECF
:10265000002387F8203082E0002387F8213074E0DF
:102660008C000020B8000020C0000020A600002040
:10267000886A0008BB7F5A1CBA7703F00703002B57
:1026800007D17B8C5A1C7A841A463B6913441B7809
:10269000FB7797F91F30002B4FDA97F83C30012B6E
:1026A00020D197F84030012B1CD197F90D309AB208
:1026B000FB8813449AB297F821309BB213449BB223
:1026C00018B297F90C309AB2BB8813449AB297F8B3
:1026D00020309BB213449BB21BB23A881946FEF7D6
:1026E000B0FE2AE0B7F91C2097F8213013449BB2C2
:1026F00097F83C2092B202FB03F39AB2FB88134492
:102700009BB218B2B7F91A2097F8203013449BB245
:1027100097F8402092B202FB03F39AB2BB881344AD
:102720009BB219B297F83C301AB297F840301CB2FD
:102730003B8800932346FEF7D1FEFB7F5B00FB77CF
:1027400097F82130013387F8213097F82120FB7B5F
:102750009A428FD397F82030013387F8203097F8CA
:102760002020BB7B9A42FFF477AFFEF7D7FE00E054
:1027700000BF2C37BD4690BDF0B58BB004AF03460B
:10278000FB71894B1B68002B67D1FB790A2B11D198
:10279000864B00221A80864B1B789BB2DB009AB2D4
:1027A000844BB3F900309BB213449BB21AB2814BF5
:1027B0001A80F4E0FB790D2B00F0F1807E4B1B7842
:1027C000002B21D0794BB3F9003019467B4B1B7895
:1027D0001A4613465B0013445B000B44784AB2F977
:1027E0000020934210DD714B00221A80704B1B7841
:1027F0009BB2DB009AB26F4BB3F900309BB213442B
:102800009BB21AB26B4B1A80684BB3F90000694B4C
:10281000B3F900406B4B1E886B4B1B88674A1278DC
:1028200063490978FD7902910192009333462A4663
:102830002146FFF795FD614B1B789BB21A4652006B
:1028400013445B009AB2594BB3F900309BB2134466
:102850009BB21AB2554B1A80A1E0FB790A2B17D113
:10286000524B00221A80524B1B789BB24E4A126880
:102870000C32127892B202FB03F39AB24D4BB3F9C9
:1028800000309BB213449BB21AB24A4B1A8086E0C6
:10289000FB790D2B00F08380434B1B6808331B78BA
:1028A000FB75FA79FB7D9A4279D33F4B1B680A335B
:1028B0001B78FA799A4272D83B4B1868FA79FB7DFB
:1028C000D31ADBB21946FEF77EFC38613B699B7870
:1028D000FB733B69DB78BB73FB7B002B4CD0BB7B72
:1028E000002B49D03B6905331B785BB2BB81324B6F
:1028F0001B78002B29D02D4BB3F9003019462F4BF4
:102900001B781846B7F90C20FB7B134403FB00F33C
:102910000B442B4AB2F90020934216DD234B0022D0
:102920001A80234B1B789BB21F4A12680C32127814
:1029300092B202FB03F39AB21E4BB3F900309BB282
:1029400013449BB21AB21B4B1A80184BB3F9000008
:10295000184BB3F900401B4B1E881B4B1B88174AB2
:10296000127813490978FD79029101920093334658
:102970002A462146FFF7F4FC3B6904331B789BB2DF
:102980000E4A127892B202FB03F39AB2074BB3F9E4
:1029900000309BB213449BB21AB2044B1A8000BFA2
:1029A0001C37BD46F0BD00BF8C000020BC000020DD
:1029B000C700002084000020BE00002090000020FE
:1029C000B8000020C8000020C400002080B582B0FC
:1029D00000AF786007E07B681B781846FFF7CCFEF5
:1029E0007B6801337B607B681B78002BF3D100BFD1
:1029F0000837BD4680BD000080B483B000AF0346F9
:102A00000A46FB711346BB71FB79002B01D0FB79A1
:102A100000E00123074A1370BB79002B01D0BB797A
:102A200000E00123044A137000BF0C37BD4680BC90
:102A3000704700BF90000020C700002080B483B022
:102A400000AF78607B68002B0DD0114B1B68002B0A
:102A500016D1104BB3F900309BB206339BB21AB2B9
:102A60000C4B1A800CE00A4B1B68002B08D0094B5A
:102A7000B3F900309BB2063B9BB21AB2054B1A80E9
:102A8000034A7B68136000BF0C37BD4680BC7047AB
:102A90008C0000208400002090B589B006AF044669
:102AA000084611461A462346FB800346BB800B4668
:102AB0007B8013463B80FA887B885B089BB2D31AE5
:102AC0009BB218B2BA883B885B089BB2D31A9BB200
:102AD00019B23C887A8897F8283004937B6A03936C
:102AE0003B8C0293BB8B01933B8B0093234600F0FE
:102AF00004F800BF0C37BD4690BD90B589B006AF55
:102B00000446084611461A462346FB800346BB800E
:102B10000B467B8013463B803C887A88B7F90410CB
:102B2000B7F9060097F82830059397F828300493F2
:102B30007B6A03933B8C0293BB8B01933B8B00938B
:102B4000234600F005F800BF0C37BD4690BD0000DD
:102B500090B583B000AF0446084611461A46234696
:102B6000FB800346BB800B467B8013463B80134AA9
:102B7000FB881380124ABB881380124A7B8813801B
:102B8000114A3B881380114A3B8B1380104ABB8B40
:102B90001380104A3B8C13800F4A97F8283013702B
:102BA0000E4A97F82C3013700922796A0C4802F00B
:102BB00009FF00BF0C37BD4690BD00BFB600002026
:102BC000BA000020940000208A0000208800002025
:102BD000A4000020B400002086000020C2000020D5
:102BE0009800002000000000F0B587B002AF034657
:102BF000FB71FB7983F00103DBB2002B09D06C4B36
:102C00001B88FB816B4B1B88BB816B4B1B887B81BB
:102C100008E0694B1B88FB81664B1B88BB81644BBA
:102C20001B887B81654B1A88654B1B889A4207D2AB
:102C3000624B1B88002B00DA03339B10DBB206E0EB
:102C40005F4B1B88002B00DA03339B10DBB27B72D7
:102C50005C4BB3F900005C4BB3F90010574B1B8879
:102C60001CB2574B1B881DB27B7A1BB2FA890192AA
:102C700000932B462246FFF7BEF8524BB3F90000F3
:102C8000514BB3F900104D4B1B881CB24C4B1B88A9
:102C90001DB27B7A1BB2BA89019200932B46224661
:102CA000FEF7D8FF474BB3F900301846FDF7AAFBF3
:102CB00004460D46414B1B881846FDF7A3FB4FF019
:102CC0000002424BFDF732FD02460B4620462946E4
:102CD000FDF74CFA03460C4625461C463C48FDF7DA
:102CE00037FA02463B4B1B7803FB02F213465B00AC
:102CF00013441846FDF776FB02460B46204629464C
:102D0000FDF732FA03460C4618462146FDF77EFED3
:102D100003461CB22C4BB3F900301846FDF772FB8A
:102D200005460E46264B1B881846FDF76BFB1EA377
:102D3000D3E90023FDF7FAFC02460B46284631464C
:102D4000FDF714FA02460B4615461E46224B1B7829
:102D50009B001846FDF756FB02460B4628463146B7
:102D6000FDF702FA02460B4610461946FDF74EFEE5
:102D700003461BB219462046FEF740FA7B891846E7
:102D8000FEF754FA134B1A78134B1B78194610466A
:102D9000FFF732FE0E48FFF719FE00BF1437BD469D
:102DA000F0BD00BFAFF300809A9999999999F93FC6
:102DB000A400002088000020B4000020940000201F
:102DC0008A000020B6000020BA00002000000C405D
:102DD0009800002086000020C200002080B582B04C
:102DE00000AF0346FB80084AFB88D3600022042121
:102DF000064801F075FE01220421044801F070FE2E
:102E000000BF0837BD4680BD000C014000080140EE
:102E100080B582B000AF0346FB8000220221054846
:102E200001F05EFEFB881846FFF7D8FF00BF0837A9
:102E3000BD4680BD0008014080B582B000AF0346AA
:102E4000FB8001220221054801F04AFEFB8818465A
:102E5000FFF7C4FF00BF0837BD4680BD0008014032
:102E600080B582B000AF03460A46FB801346BB80A4
:102E7000FB881846FFF7CCFFBB881846FFF7DCFF3E
:102E800000BF0837BD4680BD80B500AF034B1B892E
:102E90001846FFF7BDFF00BF80BD00BFCC0000207B
:102EA00080B582B000AF0346FB80012202210548B5
:102EB00001F016FEFB881846FFF790FF00BF0837A9
:102EC000BD4680BD0008014080B584B000AF034618
:102ED000FB8000221021144801F002FE134B1B88D6
:102EE000013B9AB2114B5B88013B9BB20021002051
:102EF00000F01CF90023FB6006E0FB881846FFF792
:102F0000CFFFFB680133FB60084B5B881A46074B19
:102F10001B8803FB02F31A46FB689342EDD300BF04
:102F20001037BD4680BD00BF00080140CC00002026
:102F300080B500AF00220821074801F0D1FD6420D0
:102F400001F0CEFA01220821034801F0C9FD322028
:102F500001F0C6FA00BF80BD0008014080B500AF97
:102F6000FFF7E6FFF120FFF753FF3620FFF764FF7E
:102F70000420FFF761FF0020FFF75EFF3C20FFF712
:102F80005BFF0F20FFF758FF8F20FFF755FFF22060
:102F9000FFF73EFF1820FFF74FFFA320FFF74CFF7E
:102FA0001220FFF749FF0220FFF746FFB220FFF78C
:102FB00043FF1220FFF740FFFF20FFF73DFF1020E7
:102FC000FFF73AFF0020FFF737FFF820FFF720FF59
:102FD0002120FFF731FF0420FFF72EFFF920FFF734
:102FE00017FF0020FFF728FF0820FFF725FF3620F6
:102FF000FFF70EFF0820FFF71FFFB420FFF708FFC1
:103000000020FFF719FFC120FFF702FF4120FFF763
:1030100013FFC520FFF7FCFE0020FFF70DFF9120F6
:10302000FFF70AFF8020FFF707FF0020FFF704FFEC
:10303000E020FFF7EDFE0F20FFF7FEFE1F20FFF759
:10304000FBFE1C20FFF7F8FE0C20FFF7F5FE0F201B
:10305000FFF7F2FE0820FFF7EFFE4820FFF7ECFE37
:103060009820FFF7E9FE3720FFF7E6FE0A20FFF77A
:10307000E3FE1320FFF7E0FE0420FFF7DDFE112042
:10308000FFF7DAFE0D20FFF7D7FE0020FFF7D4FE92
:10309000E120FFF7BDFE0F20FFF7CEFE3220FFF745
:1030A000CBFE2E20FFF7C8FE0B20FFF7C5FE0D203C
:1030B000FFF7C2FE0520FFF7BFFE4720FFF7BCFE6B
:1030C0007520FFF7B9FE3720FFF7B6FE0620FFF7A1
:1030D000B3FE1020FFF7B0FE0320FFF7ADFE242063
:1030E000FFF7AAFE2020FFF7A7FE0020FFF7A4FEAF
:1030F0003A20FFF78DFE5520FFF79EFE1120FFF7C7
:1031000087FE3620FFF784FE2820FFF795FE782003
:1031100001F0E6F92920FFF77BFE012000F058F8C6
:1031200048F23040FFF7D0FE00BF80BD90B583B0BD
:1031300000AF0446084611461A462346FB80034664
:10314000BB800B467B8013463B80204B5B89184637
:10315000FFF75EFEFB881B0A9BB21846FFF76CFE6A
:10316000FB88DBB29BB21846FFF766FE7B881B0A22
:103170009BB21846FFF760FE7B88DBB29BB2184615
:10318000FFF75AFE114B9B891846FFF741FEBB889B
:103190001B0A9BB21846FFF74FFEBB88DBB29BB2FF
:1031A0001846FFF749FE3B881B0A9BB21846FFF7FB
:1031B00043FE3B88DBB29BB21846FFF73DFEFFF7AC
:1031C00063FE00BF0C37BD4690BD00BFCC000020A1
:1031D00080B582B000AF0346FB71284B2A225A818A
:1031E000264B2B229A81254B2C221A81FB79032B0B
:1031F0003ED801A252F823F0093200082332000819
:103200003D320008573200081C4B4FF4A0721A8060
:103210001A4B4FF4F0725A8048213620FFF720FEF7
:1032200027E0164B4FF4F0721A80144B4FF4A07243
:103230005A8038213620FFF713FE1AE00F4B4FF467
:10324000A0721A800D4B4FF4F0725A8088213620FC
:10325000FFF706FE0DE0094B4FF4F0721A80074BA2
:103260004FF4A0725A80E8213620FFF7F9FD00E004
:1032700000BF00BF0837BD4680BD00BFCC000020A6
:1032800090B585B002AF7860874B1B6818B2874B4A
:103290001B6819B2864B1B681AB2864B1B681CB29E
:1032A0004FF4784300932346FEF7AAF97E4B1B6840
:1032B00018B27E4B1B689BB201339BB219B27C4B98
:1032C0001B681AB27B4B1B689BB201339BB21CB2CA
:1032D0004FF4784300932346FEF792F9724B1B6834
:1032E00018B2724B1B689BB201339BB219B2704B80
:1032F0001B681AB26F4B1B689BB201339BB21CB2A6
:103300004FF4784300932346FEF77AF97868FDF787
:10331000AFFC03461846FDF787F84FF00002664BF6
:10332000FDF704FA03460C46184621465CA3D3E990
:103330000023FDF7D1F803460C4618462146FDF759
:103340008DFB02465D4B1A605C4B1B681846FDF70F
:103350006BF803460C461846214602F049FB4FF035
:103360000002574BFDF7B8F803460C4618462146B5
:10337000FDF774FB0246534B1A60504B1B6818460E
:10338000FDF752F803460C461846214602F066FB4C
:103390004FF000024A4BFDF79FF803460C461846D3
:1033A0002146FDF75BFB0246474B1A60454B1B6805
:1033B00046491846FDF7A8FB03461846FDF7FCFDF5
:1033C0000246394B1A60404B1B6841491846FDF7CD
:1033D0009BFB03461846FDF7EFFD0246334B1A6090
:1033E000384B1B6819463948FDF78CFB03461846D5
:1033F000FDF7E2FD02462E4B1A60334B1B6819465F
:103400003348FDF77FFB03461846FDF7D5FD02461E
:10341000284B1A60244B1B6818B2244B1B6819B246
:10342000234B1B681AB2234B1B681CB24FF4784322
:1034300000932346FEF7E4F81B4B1B6818B21B4BA6
:103440001B689BB201339BB219B2194B1B681AB2AD
:10345000184B1B689BB201339BB21CB24FF47843EC
:1034600000932346FEF7CCF80F4B1B6818B20F4BA6
:103470001B689BB201339BB219B20D4B1B681AB289
:103480000C4B1B689BB201339BB21CB24FF47843C8
:1034900000932346FEF7B4F800BF0C37BD4690BD3D
:1034A0001F85EB51B81E09400000002004000020D9
:1034B000080000200C00002000806640680000200A
:1034C000000039406C0000207000002000007543AF
:1034D00000002A430000000090B585B002AF78607C
:1034E00039607868FDF7C4FB03461846FCF79CFF7B
:1034F0004FF00002AC4BFDF719F903460C46184695
:103500002146A7A3D3E90023FCF7E6FF03460C46B8
:1035100018462146FDF7A2FA0246A44B1A60A34BB7
:103520001B681846FCF780FF03460C4618462146E8
:1035300002F05EFA4FF000029D4BFCF7CDFF034610
:103540000C4618462146FDF789FA0246994B1A6047
:10355000964B1B681846FCF767FF03460C46184657
:10356000214602F07BFA4FF00002914BFCF7B4FFCA
:1035700003460C4618462146FDF770FA02468E4B6C
:103580001A608C4B1B688D491846FDF7BDFA03463F
:103590001846FDF711FD0246894B1A60864B1B68E1
:1035A00088491846FDF7B0FA03461846FDF704FDB2
:1035B0000246854B1A607F4B1B6819467F48FDF712
:1035C000A1FA03461846FDF7F7FC02467F4B1A6046
:1035D000794B1B6819467B48FDF794FA0346184659
:1035E000FDF7EAFC02467A4B1A60754B1B6818B26D
:1035F000754B1B6819B2754B1B681AB2744B1B686C
:103600001CB24FF6FF7300932346FDF7F9FF6C4B96
:103610001B6818B26C4B1B689BB201339BB219B28A
:103620006A4B1B681AB26A4B1B689BB201339BB290
:103630001CB24FF6FF7300932346FDF7E1FF604B8A
:103640001B6818B2604B1B689BB201339BB219B266
:103650005E4B1B681AB25E4B1B689BB201339BB278
:103660001CB24FF6FF7300932346FDF7C9FF78683D
:10367000FDF7FEFA03461846FCF7D6FE4FF00002AF
:10368000544BFCF773FD03460C46184621464FF099
:103690000002454BFDF74AF803460C461846214602
:1036A0003FA3D3E90023FCF717FF03460C46184657
:1036B0002146FDF7D3F902463C4B1A603B4B1B6891
:1036C0001846FCF7B1FE03460C461846214602F0A8
:1036D0008FF94FF00002364BFCF7FEFE03460C4616
:1036E00018462146FDF7BAF90246324B1A602F4BB5
:1036F0001B681846FCF798FE03460C461846214600
:1037000002F0ACF94FF00002294BFCF7E5FE03464E
:103710000C4618462146FDF7A1F90246264B1A60D1
:10372000244B1B6825491846FDF7EEF90346184659
:10373000FDF742FC0246224B1A601F4B1B682149D1
:103740001846FDF7E1F903461846FDF735FC024639
:103750001D4B1A60174B1B6819461848FDF7D2F924
:1037600003461846FDF728FC0246184B1A60124B18
:103770001B6819461348FDF7C5F903461846FDF7BF
:103780001BFC0246124B1A600D4B1B6818B20E4B05
:103790001B6819B20D4B1B681AB21DE0AFF3008015
:1037A0001F85EB51B81E094000806640680000206C
:1037B000000039406C0000207000002000007543BC
:1037C0000000002000002A43040000200800002020
:1037D0000C000020008056407F4B1B681CB24FF647
:1037E000FF7300932346FDF70BFF7C4B1B6818B259
:1037F0007B4B1B689BB201339BB219B2794B1B68A0
:103800001AB2754B1B689BB201339BB21CB24FF6C8
:10381000FF7300932346FDF7F3FE704B1B6818B24D
:103820006F4B1B689BB201339BB219B26D4B1B6887
:103830001AB2694B1B689BB201339BB21CB24FF6A4
:10384000FF7300932346FDF7DBFE674B1B68002BDD
:1038500040F0CE80644B01221A6000230093F523D0
:10386000EE22F021EE20FDF7CBFE00230093FF2394
:10387000EE22FA21EE20FDF7C3FE0023009340F272
:103880000913EE224FF48271EE20FDF7B9FE0023FA
:103890000093F023F622EB21F620FDF7B1FE002382
:1038A0000093FA23F622F521F620FDF7A9FE002366
:1038B00000934FF48273F622FF21F620FDF7A0FE5D
:1038C00000230093F523FE22F021FE20FDF798FE51
:1038D00000230093FF23FE22FA21FE20FDF790FE35
:1038E0000023009340F20913FE224FF48271FE2060
:1038F000FDF786FE3D4A3B6852F823309BB20093A9
:10390000F023EE22EB21EE20FDF77AFE374A3B68EA
:1039100052F823309BB20093FA23EE22F521EE20D9
:10392000FDF76EFE314A3B6852F823309BB200939C
:103930004FF48273EE22FF21EE20FDF761FE2B4A49
:103940003B6852F823309BB20093F523F622F02116
:10395000F620FDF755FE254A3B6852F823309BB20E
:103960000093FF23F622FA21F620FDF749FE1F4AB5
:103970003B6852F823309BB200934FF48573F622D4
:103980004FF48271F620FDF73BFE184A3B6852F86F
:1039900023309BB20093F023FE22EB21FE20FDF7A3
:1039A0002FFE124A3B6852F823309BB20093FA2351
:1039B000FE22F521FE20FDF723FE0C4A3B6852F85B
:1039C00023309BB200934FF48273FE22FF21FE202E
:1039D000FDF716FECCE000BF0C0000200000002028
:1039E00004000020080000207800002030000020A3
:1039F000614B00221A6000230093F023EE22EB219A
:103A0000EE20FDF7FDFD00230093FA23EE22F521C1
:103A1000EE20FDF7F5FD002300934FF48273EE22B4
:103A2000FF21EE20FDF7ECFD00230093F523F622A5
:103A3000F021F620FDF7E4FD00230093FF23F6229A
:103A4000FA21F620FDF7DCFD002300934FF4857387
:103A5000F6224FF48271F620FDF7D2FD0023009389
:103A6000F023FE22EB21FE20FDF7CAFD0023009388
:103A7000FA23FE22F521FE20FDF7C2FD002300936C
:103A80004FF48273FE22FF21FE20FDF7B9FD3B4A71
:103A90003B6852F823309BB20093F523EE22F021CD
:103AA000EE20FDF7ADFD354A3B6852F823309BB25E
:103AB0000093FF23EE22FA21EE20FDF7A1FD2F4A0D
:103AC0003B6852F823309BB2009340F20913EE2278
:103AD0004FF48271EE20FDF793FD284A3B6852F8BF
:103AE00023309BB20093F023F622EB21F620FDF762
:103AF00087FD224A3B6852F823309BB20093FA2399
:103B0000F622F521F620FDF77BFD1C4A3B6852F8B2
:103B100023309BB200934FF48273F622FF21F620EC
:103B2000FDF76EFD154A3B6852F823309BB20093B7
:103B3000F523FE22F021FE20FDF762FD0F4A3B68CF
:103B400052F823309BB20093FF23FE22FA21FE207D
:103B5000FDF756FD094A3B6852F823309BB20093AB
:103B600040F20913FE224FF48271FE20FDF748FD5A
:103B700000BF0C37BD4690BD78000020300000200B
:103B800080B588B006AF78607B68032B00F2908028
:103B900001A252F823F000BFA93B0008E93B00084E
:103BA0002F3C00086F3C000800230193D2230093B0
:103BB0000A2328229621DC20FEF7AEFA0123049383
:103BC0003E4B03934FF6FF73029348F21F4301935A
:103BD000002300935023962278217820FEF75CFF83
:103BE0000020FFF701F864E0002301934FF4A57370
:103BF00000930A232822962140F20910FEF78CFA3E
:103C0000012304932E4B03934FF6FF73029346F266
:103C10008C530193002300935023962278214FF474
:103C2000B970FEF739FF0020FEF7DEFF41E0002308
:103C30000193962300930A232822B421D220FEF771
:103C40006BFA012304931F4B03934FF6FF73029308
:103C500043F2B96301930023009350239622E62197
:103C60007820FEF719FF0020FEF7BEFF21E00023B9
:103C700001931E2300930A232822BE214FF487704C
:103C8000FEF74AFA012304930F4B03934FF6FF7399
:103C900002931F2301930023009350239622E621D1
:103CA0004FF4B970FEF7F8FE0020FEF79DFF00E02C
:103CB00000BF00BF0837BD4680BD00BF486A00088E
:103CC000506A0008586A0008606A0008B0B588B0F9
:103CD00002AF0346FB71FB79714A52F823309BB265
:103CE0002322AA21F520FDF7B3FE4FF6FF73192218
:103CF000AA21F520FDF7EAFC4FF478431922AA2106
:103D0000F520FDF7A5FE4FF6FF731A22AA21F52034
:103D1000FDF7DCFCFB79624A52F823309BB2019339
:103D2000022300931E231622C821EB20FEF763F81E
:103D30004FF6FF7300934FF49B7340F209124FF458
:103D40009B71E120FDF75CFC4FF6FF7300934FF48D
:103D50008773D7224FF49B71E120FDF751FC4FF69A
:103D6000FF7300934FF4877340F213124FF49B716B
:103D700040F20910FDF744FC00237B6100233B6106
:103D800032E00023FB6029E03B699BB2C3F1E10311
:103D90009BB218B27B699BB2C3F59A7301339BB295
:103DA00019B23B699BB203F209139BB21CB27B6947
:103DB0009BB2C3F59A7301339BB21DB2FB79384AAB
:103DC00052F823309BB200932B462246FDF718FC95
:103DD0007B6901337B61FB680133FB60FB68042B6B
:103DE000D2DD3B6901333B613B69042BC9DD4FF6F2
:103DF000FF73009303231E224FF48771F520FEF713
:103E000077F8FB79032B46D801A252F823F000BFC4
:103E1000213E00083D3E00085D3E0008793E000856
:103E2000FB791F4A52F823300193D22300930A23CF
:103E300028229621DC20FEF76FF92DE0FB79184A45
:103E400052F8233001934FF4A57300930A232822DC
:103E5000962140F20910FEF75FF91DE0FB79104A48
:103E600052F823300193962300930A232822B42189
:103E7000D220FEF751F90FE0FB79094A52F82330BE
:103E800001931E2300930A232822BE214FF487703A
:103E9000FEF742F900E000BF00BF1837BD46B0BDD5
:103EA0003000002080B582B000AF0346FB71124B9A
:103EB0001B881A46114B53F822301846FFF7E0F9D9
:103EC0000D4B1B8801339AB20B4B1A800A4B1B888F
:103ED000052B02D9084B00221A80074B1B881A4673
:103EE000064B53F82230FA7911461846FFF7F4FAD8
:103EF00000BF0837BD4680BD7400002010000020C0
:103F000080B588B006AF00F089FA00F0B7F800F08D
:103F100021F900F0F5F8FFF721F84FF4A0714FF404
:103F2000F070FDF799F90020FDF750FB4C48FEF7C3
:103F300085FD4FF6FF70FDF779F92821A020FDF7E8
:103F40005DF94848FEF742FD282300932823464A9E
:103F50000A216420FEF7B6F901230493434B03932F
:103F60004FF6FF73029348F21F430193002300931F
:103F70005023962278217820FEF78EFD0020FEF750
:103F800033FE012304933A4B03934FF6FF730293DE
:103F900046F28C53019300230093502396227821FC
:103FA0004FF4B970FEF778FD0020FEF71DFE0123E7
:103FB0000493304B03934FF6FF73029343F2B963BC
:103FC00001930023009350239622E6217820FEF7E8
:103FD00063FD0020FEF708FE01230493264B0393A4
:103FE0004FF6FF7302931F23019300230093502386
:103FF0009622E6214FF4B970FEF74EFD0020FEF741
:10400000F3FD00237B6000233B603B68DBB2184676
:10401000FFF75CFE00F05AFA02467B68D31A41F2C1
:104020007072934213D900F051FA03467B603868EE
:10403000FFF7A6FD3B6801333B603B68032B01DDC6
:1040400000233B603B68DBB21846FFF73FFE3B684E
:10405000DBB21846FFF726FFC82000F041FAD9E787
:1040600068810008686A000878810008486A0008CA
:10407000506A0008586A0008606A000880B590B06D
:1040800000AF07F1180328220021184601F092FC26
:104090003B1D00221A605A609A60DA601A6102239E
:1040A000BB610123BB621023FB6202237B630023FD
:1040B000BB634FF46013FB6307F11803184600F06D
:1040C00027FD0346002B01D000F0BCF80F237B60D6
:1040D0000223BB600023FB604FF480633B6100233D
:1040E0007B613B1D0221184600F092FF0346002B26
:1040F00001D000F0A7F800BF4037BD4680BD0000EA
:1041000080B500AF114B124A1A60104B4FF4E132E8
:104110005A600E4B00229A600C4B0022DA600B4B67
:1041200000221A61094B0C225A61084B00229A6145
:10413000064B0022DA61054801F008F90346002B1E
:1041400001D000F07FF800BF80BD00BFDC00002080
:104150000038014080B588B000AF07F1100300229D
:104160001A605A609A60DA60324B9B69314A43F0B8
:10417000100393612F4B9B6903F01003FB60FB68F6
:104180002C4B9B692B4A43F004039361294B9B6999
:1041900003F00403BB60BB68264B9B69254A43F0D0
:1041A00008039361234B9B6903F008037B607B68E2
:1041B00000224FF40051204800F092FC00221E2102
:1041C0001E4800F08DFC00224FF6FF711C4800F0E5
:1041D00087FC4FF400533B6101237B610023BB61EB
:1041E0000323FB6107F110031946134800F01EFB7F
:1041F0001E233B6101237B610023BB610323FB6121
:1042000007F1100319460D4800F010FB4FF6FF733D
:104210003B6101237B610023BB610323FB6107F149
:1042200010031946064800F001FB00BF2037BD46C9
:1042300080BD00BF00100240001001400008014096
:10424000000C014080B400AF00BFBD4680BC704789
:1042500080B485B000AF154B9B69144A43F001034D
:104260009361124B9B6903F00103BB60BB680F4B6A
:10427000DB690E4A43F08053D3610C4BDB6903F0DA
:1042800080537B607B680A4B5B68FB60FB6823F0B4
:10429000E063FB60FB6843F00073FB60044AFB686B
:1042A000536000BF1437BD4680BC70470010024009
:1042B0000000014080B588B000AF786007F11003BE
:1042C00000221A605A609A60DA607B681B68204A94
:1042D000934239D11F4B9B691E4A43F4804393613B
:1042E0001C4B9B6903F48043FB60FB68194B9B6983
:1042F000184A43F004039361164B9B6903F00403CF
:10430000BB60BB684FF400733B6102237B610323F6
:10431000FB6107F1100319460F4800F087FA4FF4CC
:1043200080633B6100237B610023BB6107F11003C5
:104330001946094800F07AFA00220021252000F0F1
:10434000C8F9252000F0E1F900BF2037BD4680BD47
:1043500000380140001002400008014080B400AF66
:1043600000BFBD4680BC704780B400AFFEE780B49C
:1043700000AFFEE780B400AFFEE780B400AFFEE719
:1043800080B400AF00BFBD4680BC704780B400AFB2
:1043900000BFBD4680BC704780B400AF00BFBD46C3
:1043A00080BC704780B500AF00F07EF800BF80BDD4
:1043B00080B500AF024801F017F800BF80BD00BF14
:1043C000DC00002080B400AF00BFBD4680BC704759
:1043D000002103E00B4B5B58435004310A480B4B60
:1043E00042189A42F6D30A4A02E0002342F8043BFC
:1043F000084B9A42F9D3FFF7E5FF01F0B7FAFFF750
:104400007FFD7047F88F0008000000204C0000205E
:104410004C00002020010020FEE7000080B500AF26
:10442000084B1B68074A43F010031360032000F099
:1044300045F9002000F008F8FFF70AFF00231846AE
:1044400080BD00BF0020024080B582B000AF786020
:10445000124B1A68124B1B7819464FF47A73B3FB50
:10446000F1F3B2FBF3F3184600F05DF90346002BBD
:1044700001D001230EE07B680F2B0AD80022796857
:104480004FF0FF3000F025F9064A7B6813600023E7
:1044900000E0012318460837BD4680BD40000020DB
:1044A000480000204400002080B400AF054B1B787A
:1044B0001A46054B1B681344034A136000BFBD46F0
:1044C00080BC7047480000201C01002080B400AF71
:1044D000024B1B681846BD4680BC70471C0100207B
:1044E00080B584B000AF7860FFF7F0FFB8607B68FC
:1044F000FB60FB68B3F1FF3F05D0094B1B781A4600
:10450000FB681344FB6000BFFFF7E0FF0246BB6897
:10451000D31AFA689A42F7D800BF1037BD4680BD5B
:104520004800002080B485B000AF78607B6803F05D
:104530000703FB600C4BDB68BB60BA684FF6FF03F8
:104540001340BB60FB681A02BB68134343F0BF63B0
:1045500043F40033BB60044ABB68D36000BF143728
:10456000BD4680BC704700BF00ED00E080B400AFE6
:10457000044BDB681B0A03F007031846BD4680BCEA
:10458000704700BF00ED00E080B483B000AF034689
:10459000FB7197F90730002B0BDBFB7903F01F024F
:1045A000064997F907305B09012000FA02F241F849
:1045B000232000BF0C37BD4680BC704700E100E0FF
:1045C00080B483B000AF03463960FB7197F90730C0
:1045D000002B0ADB3B68DAB20C4997F9073012016D
:1045E000D2B20B4483F800230AE03B68DAB20849F0
:1045F000FB7903F00F03043B1201D2B20B441A768D
:1046000000BF0C37BD4680BC704700BF00E100E032
:1046100000ED00E080B489B000AFF860B9607A6066
:10462000FB6803F00703FB61FB69C3F10703042B7D
:1046300028BF0423BB61FB690433062B02D9FB6945
:10464000033B00E000237B614FF0FF32BB6902FABD
:1046500003F3DA43BB681A407B699A404FF0FF319D
:104660007B6901FA03F3D9437B680B401343184677
:104670002437BD4680BC704780B582B000AF7860FB
:104680007B68013BB3F1807F01D301230FE00A4A2D
:104690007B68013B53600F214FF0FF30FFF790FF25
:1046A000054B00229A60044B07221A60002318462B
:1046B0000837BD4680BD00BF10E000E080B582B085
:1046C00000AF78607868FFF72DFF00BF0837BD4660
:1046D00080BD80B586B000AF0346B9607A60FB73D9
:1046E00000237B61FFF742FF78617A68B9687869D7
:1046F000FFF790FF024697F90F3011461846FFF773
:104700005FFF00BF1837BD4680BD80B582B000AFE7
:104710000346FB7197F907301846FFF735FF00BFD6
:104720000837BD4680BD80B582B000AF786078683C
:10473000FFF7A2FF034618460837BD4680BD0000BC
:1047400080B584B000AF78600023FB737B6893F87A
:104750002130022B05D07B6804229A630123FB736E
:1047600051E07B681B681A687B681B6822F00E02A8
:104770001A607B681B681A687B681B6822F001025C
:104780001A607B681B68224A934229D07B681B68A9
:10479000204A934222D07B681B681F4A93421AD05A
:1047A0007B681B681D4A934212D07B681B681C4AB9
:1047B00093420AD07B681B681A4A934202D14FF495
:1047C00080130EE04FF080730BE04FF4803308E06D
:1047D0004FF4805305E04FF4807302E0102300E0B3
:1047E0000123114A53607B68012283F821207B68F2
:1047F000002283F820207B685B6B002B03D07B6852
:104800005B6B78689847FB7B18461037BD4680BDC8
:10481000080002401C0002403000024044000240F8
:10482000580002406C0002400000024080B48BB08F
:1048300000AF7860396000237B6200233B6227E190
:1048400001227B6A02FA03F3FB613B681B68FA6989
:104850001340BB61BA69FB699A4240F016813B681C
:104860005B68122B34D0122B0DD8022B2BD0022BCD
:1048700004D8002B31D0012B1CD048E0032B43D0AF
:10488000112B1BD043E0894A934226D0874A93429A
:1048900006D8874A934220D0864A93421DD036E0FC
:1048A000854A934219D0854A934216D0844A93424E
:1048B00013D02CE03B68DB683B6228E03B68DB6898
:1048C00004333B6223E03B68DB6808333B621EE055
:1048D0003B68DB680C333B6219E03B689B68002B4C
:1048E00002D104233B6212E03B689B68012B05D197
:1048F00008233B627B68FA691A6108E008233B627F
:104900007B68FA695A6102E000233B6200BFBB6921
:10491000FF2B01D87B6801E07B6804337B61BB69B6
:10492000FF2B02D87B6A9B0002E07B6A083B9B005E
:104930003B617B691A680F213B6901FA03F3DB4392
:104940001A40396A3B6901FA03F31A437B691A601A
:104950003B685B6803F08053002B00F09680594B56
:104960009B69584A43F001039361564B9B6903F0DE
:104970000103BB60BB68544A7B6A9B08023352F850
:104980002330FB607B6A03F003039B000F2202FAD3
:1049900003F3DB43FA681340FB607B684B4A9342A6
:1049A00013D07B684A4A93420DD07B68494A9342B0
:1049B00007D07B68484A934201D1032306E00423D1
:1049C00004E0022302E0012300E000237A6A02F0FF
:1049D000030292009340FA681343FB603A497B6AF2
:1049E0009B080233FA6841F823203B685B6803F4B4
:1049F0008033002B06D0394B1A683849BB69134302
:104A00000B6006E0354B1A68BB69DB433349134042
:104A10000B603B685B6803F40033002B06D02F4B20
:104A20005A682E49BB6913434B6006E02B4B5A680A
:104A3000BB69DB43294913404B603B685B6803F467
:104A40008013002B06D0254B9A682449BB69134379
:104A50008B6006E0214B9A68BB69DB431F4913401A
:104A60008B603B685B6803F40013002B06D01B4B84
:104A7000DA681A49BB691343CB6006E0174BDA6862
:104A8000BB69DB4315491340CB607B6A01337B6212
:104A90003B681A687B6A22FA03F3002B7FF4D0AEDE
:104AA00000BF2C37BD4680BC704700BF00002110FE
:104AB0000000111000001210000031100000321030
:104AC00000002210001002400000014000080140D8
:104AD000000C01400010014000140140000401409E
:104AE00080B483B000AF78600B467B8013467B7048
:104AF0007B78002B03D07A887B681A6103E07B887F
:104B00001A047B681A6100BF0C37BD4680BC704731
:104B100080B586B000AF78607B68002B01D101239F
:104B20006CE27B681B6803F00103002B00F08780B8
:104B3000924B5B6803F00C03042B0CD08F4B5B682B
:104B400003F00C03082B12D18C4B5B6803F4803309
:104B5000B3F5803F0BD1894B1B6803F40033002B66
:104B60006CD07B685B68002B68D1012346E27B68D0
:104B70005B68B3F5803F06D1804B1B687F4A43F4E6
:104B8000803313602EE07B685B68002B0CD17B4B7D
:104B90001B687A4A23F480331360784B1B68774A8A
:104BA00023F4802313601DE07B685B68B3F5A02FBE
:104BB0000CD1724B1B68714A43F4802313606F4B16
:104BC0001B686E4A43F4803313600BE06B4B1B6829
:104BD0006A4A23F480331360684B1B68674A23F4E6
:104BE000802313607B685B68002B13D0FFF76EFC9B
:104BF000386108E0FFF76AFC02463B69D31A642B70
:104C000001D90323FAE15D4B1B6803F40033002B49
:104C1000F0D014E0FFF75AFC386108E0FFF756FCCB
:104C200002463B69D31A642B01D90323E6E1534BB7
:104C30001B6803F40033002BF0D100E000BF7B6859
:104C40001B6803F00203002B63D04C4B5B6803F03E
:104C50000C03002B0BD0494B5B6803F00C03082BB3
:104C60001CD1464B5B6803F48033002B16D1434BB9
:104C70001B6803F00203002B05D07B681B69012B26
:104C800001D00123BAE13D4B1B6823F0F8027B6899
:104C90005B69DB00394913430B603AE07B681B69B1
:104CA000002B20D0364B01221A60FFF70FFC386131
:104CB00008E0FFF70BFC02463B69D31A022B01D92F
:104CC00003239BE12D4B1B6803F00203002BF0D064
:104CD0002A4B1B6823F0F8027B685B69DB002749DD
:104CE00013430B6015E0264B00221A60FFF7EEFB22
:104CF000386108E0FFF7EAFB02463B69D31A022B52
:104D000001D903237AE11D4B1B6803F00203002B3A
:104D1000F0D17B681B6803F00803002B3AD07B6856
:104D20009B69002B19D0174B01221A60FFF7CEFBAD
:104D3000386108E0FFF7CAFB02463B69D31A022B31
:104D400001D903235AE10D4B5B6A03F00203002BE8
:104D5000F0D0012000F0DCFA1CE00A4B00221A60BF
:104D6000FFF7B4FB38610FE0FFF7B0FB02463B6989
:104D7000D31A022B08D9032340E100BF00100240E0
:104D800000004242800442429E4B5B6A03F00203F1
:104D9000002BE9D17B681B6803F00403002B00F0B3
:104DA000A6800023FB75974BDB6903F08053002B33
:104DB0000DD1944BDB69934A43F08053D361914BFF
:104DC000DB6903F08053BB60BB680123FB758E4B2E
:104DD0001B6803F48073002B18D18B4B1B688A4A25
:104DE00043F480731360FFF771FB386108E0FFF74D
:104DF0006DFB02463B69D31A642B01D90323FDE006
:104E0000814B1B6803F48073002BF0D07B68DB6858
:104E1000012B06D17B4B1B6A7A4A43F001031362D4
:104E20002DE07B68DB68002B0CD1764B1B6A754A42
:104E300023F001031362734B1B6A724A23F00403CD
:104E400013621CE07B68DB68052B0CD16D4B1B6A81
:104E50006C4A43F0040313626A4B1B6A694A43F0CD
:104E6000010313620BE0674B1B6A664A23F00103E0
:104E70001362644B1B6A634A23F0040313627B686A
:104E8000DB68002B15D0FFF721FB38610AE0FFF744
:104E90001DFB02463B69D31A41F28832934201D985
:104EA0000323ABE0574B1B6A03F00203002BEED049
:104EB00014E0FFF70BFB38610AE0FFF707FB02463F
:104EC0003B69D31A41F28832934201D9032395E01A
:104ED0004C4B1B6A03F00203002BEED1FB7D012B30
:104EE00005D1484BDB69474A23F08053D3617B6887
:104EF000DB69002B00F08180424B5B6803F00C0300
:104F0000082B61D07B68DB69022B46D13F4B002226
:104F10001A60FFF7DBFA386108E0FFF7D7FA0246BC
:104F20003B69D31A022B01D9032367E0354B1B6879
:104F300003F00073002BF0D17B681B6AB3F5803F50
:104F400008D1304B5B6823F400327B689B682D49A5
:104F500013434B602B4B5B6823F474127B68196A14
:104F60007B685B6A0B43274913434B60274B012245
:104F70001A60FFF7ABFA386108E0FFF7A7FA0246BC
:104F80003B69D31A022B01D9032337E01D4B1B6861
:104F900003F00073002BF0D02FE01C4B00221A60AE
:104FA000FFF794FA386108E0FFF790FA02463B6990
:104FB000D31A022B01D9032320E0124B1B6803F004
:104FC0000073002BF0D118E07B68DB69012B01D165
:104FD000012313E00B4B5B68FB60FB6803F480323A
:104FE0007B681B6A9A4206D1FB6803F470127B68E7
:104FF0005B6A9A4201D0012300E00023184618376B
:10500000BD4680BD0010024000700040600042427A
:1050100080B584B000AF786039607B68002B01D127
:105020000123D0E06A4B1B6803F007033A689A42F9
:1050300010D9674B1B6823F0070265493B6813438F
:105040000B60634B1B6803F007033A689A4201D078
:105050000123B8E07B681B6803F00203002B20D01B
:105060007B681B6803F00403002B05D0594B5B6879
:10507000584A43F4E06353607B681B6803F00803FD
:10508000002B05D0534B5B68524A43F46053536086
:10509000504B5B6823F0F0027B689B684D491343DB
:1050A0004B607B681B6803F00103002B40D07B68DA
:1050B0005B68012B07D1474B1B6803F40033002BBF
:1050C00015D101237FE07B685B68022B07D1414B40
:1050D0001B6803F00073002B09D1012373E03D4BE3
:1050E0001B6803F00203002B01D101236BE0394B55
:1050F0005B6823F003027B685B68364913434B60AF
:10510000FFF7E4F9F8600AE0FFF7E0F90246FB6810
:10511000D31A41F28832934201D9032353E02D4B35
:105120005B6803F00C027B685B689B009A42EBD1E2
:10513000274B1B6803F007033A689A4210D2244BAE
:105140001B6823F0070222493B6813430B60204B86
:105150001B6803F007033A689A4201D0012332E04A
:105160007B681B6803F00403002B08D0194B5B68B5
:1051700023F4E0627B68DB68164913434B607B686D
:105180001B6803F00803002B09D0124B5B6823F463
:1051900060527B681B69DB000E4913434B6000F0D3
:1051A00021F801460B4B5B681B0903F00F030A4A09
:1051B000D35C21FA03F3094A1360094B1B681846B4
:1051C000FFF742F9002318461037BD4680BD00BFE7
:1051D0000020024000100240008E00084000002025
:1051E0004400002090B48AB000AF2A4B3C1D0FCB86
:1051F00084E80F00284B1B883B800023FB610023C1
:10520000BB6100237B6200237B6100233B62234B55
:105210005B68FB61FB6903F00C03042B02D0082BD5
:1052200003D02DE01E4B3B622DE0FB699B0C03F08D
:105230000F0307F12802134413F8243C7B61FB6938
:1052400003F48033002B13D0144B5B685B0C03F02A
:10525000010307F12802134413F8283CBB617B6962
:105260000F4A02FB03F2BB69B2FBF3F37B6204E07B
:105270007B690C4A02FB03F37B627B6A3B6202E0C0
:10528000094B3B6200BF3B6A18462837BD4690BCBD
:10529000704700BF746A0008846A0008001002406A
:1052A0000024F40000093D0000127A0080B400AF31
:1052B000024B1B681846BD4680BC7047400000206A
:1052C00080B500AFFFF7F2FF0146054B5B681B0A94
:1052D00003F00703034AD35C21FA03F3184680BDA9
:1052E00000100240108E000880B500AFFFF7DEFF0F
:1052F0000146054B5B68DB0A03F00703034AD35CF6
:1053000021FA03F3184680BD00100240108E0008F9
:1053100080B485B000AF78600A4B1B680A4AA2FBD4
:1053200003235B0A7A6802FB03F3FB6000BFFB68A0
:105330005A1EFA60002BF9D100BF1437BD4680BC5D
:10534000704700BF40000020D34D621080B582B08E
:1053500000AF78607B68002B01D101233FE07B68C0
:1053600093F83930DBB2002B06D17B68002283F83A
:1053700038207868FEF79EFF7B68242283F8392066
:105380007B681B68DA687B681B6822F40052DA606D
:10539000786800F05DFA7B681B681A697B681B6897
:1053A00022F490421A617B681B685A697B681B680B
:1053B00022F02A025A617B681B68DA687B681B68E6
:1053C00042F40052DA607B680022DA637B682022B4
:1053D00083F839207B68202283F83A20002318467E
:1053E0000837BD4680BD000080B588B000AF78604A
:1053F0007B681B681B68FB617B681B68DB68BB61A3
:105400007B681B685B697B6100233B610023FB6059
:10541000FB6903F00F033B613B69002B0DD1FB6976
:1054200003F02003002B08D0BB6903F02003002BFE
:1054300003D0786800F08BF9D1E03B69002B00F0D5
:10544000B0807B6903F00103002B05D1BB6903F435
:105450009073002B00F0A580FB6903F00103002B83
:105460000AD0BB6903F48073002B05D07B68DB6B2B
:1054700043F001027B68DA63FB6903F00403002B4D
:105480000AD07B6903F00103002B05D07B68DB6B3E
:1054900043F002027B68DA63FB6903F00203002B2E
:1054A0000AD07B6903F00103002B05D07B68DB6B1E
:1054B00043F004027B68DA63FB6903F00803002B06
:1054C0000FD0BB6903F02003002B04D17B6903F0EC
:1054D0000103002B05D07B68DB6B43F008027B687F
:1054E000DA637B68DB6B002B78D0FB6903F0200369
:1054F000002B07D0BB6903F02003002B02D0786893
:1055000000F025F97B681B685B6903F04003002B02
:1055100014BF01230023DBB2FB607B68DB6B03F06D
:105520000803002B02D1FB68002B31D0786800F013
:1055300076F87B681B685B6903F04003002B23D07F
:105540007B681B685A697B681B6822F040025A61BD
:105550007B685B6B002B13D07B685B6B214A5A63C3
:105560007B685B6B1846FFF7EBF80346002B16D001
:105570007B685B6B5B6B7A68526B104698470EE0FA
:10558000786800F043F80AE0786800F03FF806E039
:10559000786800F03BF87B680022DA631EE000BF09
:1055A0001CE0FB6903F08003002B08D0BB6903F00B
:1055B0008003002B03D0786800F062F80FE0FB69ED
:1055C00003F04003002B0AD0BB6903F04003002B1B
:1055D00005D0786800F0A3F800BF00E000BF2037D6
:1055E000BD4680BD5956000880B483B000AF7860D6
:1055F00000BF0C37BD4680BC704780B483B000AF9D
:10560000786000BF0C37BD4680BC704780B483B063
:1056100000AF786000BF0C37BD4680BC704780B4D7
:1056200083B000AF78607B681B68DA687B681B68B2
:1056300022F49072DA607B681B685A697B681B6889
:1056400022F001025A617B68202283F83A2000BFD1
:105650000C37BD4680BC704780B584B000AF786021
:105660007B685B6AFB60FB680022DA85FB680022CE
:10567000DA84F868FFF7CAFF00BF1037BD4680BD67
:1056800080B485B000AF78607B6893F83930DBB2C6
:10569000212B3ED17B689B68B3F5805F14D17B687A
:1056A0001B69002B10D17B681B6AFB60FB681B88A1
:1056B0001A467B681B68C2F308025A607B681B6A43
:1056C0009A1C7B681A6208E07B681B6A591C7A681E
:1056D00011621A787B681B685A607B68DB8C9BB20E
:1056E000013B9BB27A681946D184002B0FD17B68AD
:1056F0001B68DA687B681B6822F08002DA607B68CE
:105700001B68DA687B681B6842F04002DA6000239D
:1057100000E0022318461437BD4680BC704780B5B0
:1057200082B000AF78607B681B68DA687B681B68B2
:1057300022F04002DA607B68202283F83920786802
:10574000FFF752FF002318460837BD4680BD80B5DD
:1057500084B000AF78607B6893F83A30DBB2222BDC
:1057600070D17B689B68B3F5805F17D17B681B693C
:10577000002B13D10023FB607B689B6ABB607B68B6
:105780001B685B689BB2C3F308039AB2BB681A80BC
:105790007B689B6A9A1C7B689A6226E07B689B6A9E
:1057A000FB600023BB607B689B68B3F5805F07D01C
:1057B0007B689B68002B0AD17B681B69002B06D194
:1057C0007B681B685B68DAB2FB681A7008E07B686C
:1057D0001B685B68DBB203F07F03DAB2FB681A7008
:1057E0007B689B6A5A1C7B689A627B68DB8D9BB2E4
:1057F000013B9BB27A681946D185002B20D17B688A
:105800001B68DA687B681B6822F02002DA607B681C
:105810001B68DA687B681B6822F48072DA607B6838
:105820001B685A697B681B6822F001025A617B6819
:10583000202283F83A207868FFF7DFFE002302E099
:10584000002300E0022318461037BD4680BD00004B
:1058500080B584B000AF78607B681B681B6923F457
:1058600040517B68DA687B681B680A431A617B6871
:105870009A687B681B691A437B685B691343BB604A
:105880007B681B68DB6823F4B05323F00C037A6851
:105890001268B9680B43D3607B681B685B6923F4AB
:1058A00040717B689A697B681B680A435A617B6810
:1058B0001B682C4A934203D1FFF716FDF86002E003
:1058C000FFF7FEFCF860FA6813469B0013449A0049
:1058D0001A447B685B689B00B2FBF3F3224AA2FB8D
:1058E00003235B091901FA6813469B0013449A00CD
:1058F0001A447B685B689B00B2FBF3F21A4BA3FB74
:1059000002035B09642000FB03F3D31A1B0132334B
:10591000154AA2FB03235B0903F0F0031944FA685C
:1059200013469B0013449A001A447B685B689B00F3
:10593000B2FBF3F20C4BA3FB02035B09642000FBF8
:1059400003F3D31A1B013233074AA2FB03235B097B
:1059500003F00F027B681B680A449A6000BF10378F
:10596000BD4680BD003801401F85EB5170B5002554
:105970000C4E0D4CA41BA410A54209D101F058F8FF
:1059800000250A4E0A4CA41BA410A54205D170BDE7
:1059900056F8253098470135EEE756F825309847F8
:1059A0000135F2E7F08F0008F08F0008F08F000853
:1059B000F48F000803460244934200D1704703F875
:1059C000011BF9E770B50446013902B970BD2346E1
:1059D00011F8015F561E03F8015B2DB91444A34270
:1059E000F4D003F8015BFAE71C463246EDE700000D
:1059F00030B5184A21F00043934287B004DC0022FE
:105A0000002300F055FA06E0134A934205DD0246F2
:105A10000B46FAF7A9FB07B030BD02AA00F058F810
:105A2000DDE9042300F00304012CDDE9020108D0C4
:105A3000022C0CD0002CE4D00124009400F040FE95
:105A4000E9E7009400F03CFE01F10041E3E700F0DB
:105A50002FFAF9E7FB21E93FFFFFEF7F30B51A4A44
:105A600021F00043934287B006DC0023002200931C
:105A7000002300F025FE06E0144A934205DD0246AD
:105A80000B46FAF771FB07B030BD02AA00F020F810
:105A9000DDE9042300F00304012CDDE9020105D057
:105AA000022C06D064B901240094E2E700F000FA69
:105AB000E9E70124009400F003FE01F10041E2E770
:105AC00000F0F6F9F9E700BFFB21E93FFFFFEF7FA8
:105AD0002DE9F04F1446C24A21F0004A92458DB09C
