:020000040800F2
:1000000000500020C12800084D2800085928000889
:100010005F280008652800086B2800080000000021
:10002000000000000000000000000000712800082F
:100030007D28000800000000892800089528000895
:1000400009290008092900080929000809290008C8
:1000500009290008092900080929000809290008B8
:1000600009290008092900080929000809290008A8
:100070000929000809290008092900080929000898
:100080000929000809290008092900080929000888
:100090000929000809290008092900080929000878
:1000A0000929000809290008092900080929000868
:1000B0000929000809290008092900080929000858
:1000C0000929000809290008092900080929000848
:1000D00009290008A12800080929000809290008A1
:1000E0000929000809290008092900080000000062
:1000F0000000000000000000000000000000000000
:0C01000000000000000000005FF808F1A3
:1001100010B5054C237833B9044B13B10448AFF341
:1001200000800123237010BD0C000020000000009F
:10013000143F000808B5034B1BB103490348AFF354
:10014000008008BD0000000010000020143F0008DF
:10015000034613F8012B002AFBD1181A0138704707
:1001600081F0004102E000BF83F0004330B54FEA68
:1001700041044FEA430594EA050F08BF90EA020FD5
:100180001FBF54EA000C55EA020C7FEA645C7FEA68
:10019000655C00F0E2804FEA5454D4EB5555B8BF8B
:1001A0006D420CDD2C4480EA020281EA030382EAFC
:1001B000000083EA010180EA020281EA0303362D8E
:1001C00088BF30BD11F0004F4FEA01314FF4801C61
:1001D0004CEA113102D0404261EB410113F0004F73
:1001E0004FEA03334CEA133302D0524263EB43032A
:1001F00094EA050F00F0A780A4F10104D5F1200EC8
:100200000DDB02FA0EFC22FA05F2801841F1000122
:1002100003FA0EF2801843FA05F359410EE0A5F1F6
:1002200020050EF1200E012A03FA0EFC28BF4CF027
:10023000020C43FA05F3C01851EBE37101F00045DD
:1002400007D54FF0000EDCF1000C7EEB00006EEBEA
:100250000101B1F5801F1BD3B1F5001F0CD3490874
:100260005FEA30004FEA3C0C04F101044FEA4452CB
:1002700012F5800F80F09A80BCF1004F08BF5FEA52
:10028000500C50F1000041EB045141EA050130BD32
:100290005FEA4C0C404141EB010111F4801FA4F1D5
:1002A0000104E9D191F0000F04BF01460020B1FA2A
:1002B00081F308BF2033A3F10B03B3F120020CDA62
:1002C0000C3208DD02F1140CC2F10C0201FA0CF040
:1002D00021FA02F10CE002F11402D8BFC2F1200CA5
:1002E00001FA02F120FA0CFCDCBF41EA0C0190405B
:1002F000E41AA2BF01EB0451294330BD6FEA0404A4
:100300001F3C1CDA0C340EDC04F11404C4F120028E
:1003100020FA04F001FA02F340EA030021FA04F3A0
:1003200045EA030130BDC4F10C04C4F1200220FAF7
:1003300002F001FA04F340EA0300294630BD21FA35
:1003400004F0294630BD94F0000F83F4801306BFFB
:1003500081F480110134013D4EE77FEA645C18BFEF
:100360007FEA655C29D094EA050F08BF90EA020F86
:1003700005D054EA000C04BF1946104630BD91EA7E
:10038000030F1EBF0021002030BD5FEA545C05D181
:100390004000494128BF41F0004130BD14F58004C0
:1003A0003CBF01F5801130BD01F0004545F0FE4134
:1003B00041F470014FF0000030BD7FEA645C1ABF69
:1003C000194610467FEA655C1CBF0B46024650EAA0
:1003D000013406BF52EA033591EA030F41F40021CC
:1003E00030BD00BF90F0000F04BF0021704730B552
:1003F0004FF4806404F132044FF000054FF0000127
:1004000050E700BF90F0000F04BF0021704730B5E7
:100410004FF4806404F1320410F0004548BF4042BC
:100420004FF000013EE700BF42004FEAE2014FEA11
:1004300031014FEA02701FBF12F07F4393F07F4FEC
:1004400081F06051704732F07F4208BF704793F0EF
:100450007F4F04BF41F40021704730B54FF4607402
:1004600001F0004521F000411CE700BF50EA010205
:1004700008BF704730B54FF000050AE050EA0102AE
:1004800008BF704730B511F0004502D5404261EB1E
:1004900041014FF4806404F132045FEA915C3FF45F
:1004A000D8AE4FF003025FEADC0C18BF03325FEAFC
:1004B000DC0C18BF033202EBDC02C2F1200300FAAD
:1004C00003FC20FA02F001FA03FE40EA0E0021FAD2
:1004D00002F11444BDE600BF70B54FF0FF0C4CF4C0
:1004E000E06C1CEA11541DBF1CEA135594EA0C0F72
:1004F00095EA0C0F00F0DEF82C4481EA030621EAAD
:100500004C5123EA4C5350EA013518BF52EA0335E7
:1005100041F4801143F4801338D0A0FB02CE4FF099
:100520000005E1FB02E506F00042E0FB03E54FF0C9
:100530000006E1FB03569CF0000F18BF4EF0010EC1
:10054000A4F1FF04B6F5007F64F5407404D25FEABD
:100550004E0E6D4146EB060642EAC62141EA555170
:100560004FEAC52040EA5E504FEACE2EB4F1FD0CB2
:1005700088BFBCF5E06F1ED8BEF1004F08BF5FEA30
:10058000500E50F1000041EB045170BD06F00046E2
:1005900046EA010140EA020081EA0301B4EB5C048F
:1005A000C2BFD4EB0C0541EA045170BD41F4801187
:1005B0004FF0000E013C00F3AB8014F1360FDEBFAC
:1005C000002001F0004170BDC4F10004203C35DA88
:1005D0000C341BDC04F11404C4F1200500FA05F30B
:1005E00020FA04F001FA05F240EA020001F00042AC
:1005F00021F0004110EBD37021FA04F642EB060122
:100600005EEA430E08BF20EAD37070BDC4F10C044B
:10061000C4F1200500FA04F320FA05F001FA04F20F
:1006200040EA020001F0004110EBD37041F10001FB
:100630005EEA430E08BF20EAD37070BDC4F1200506
:1006400000FA05F24EEA020E20FA04F301FA05F26E
:1006500043EA020321FA04F001F0004121FA04F216
:1006600020EA020000EBD3705EEA430E08BF20EAE6
:10067000D37070BD94F0000F0FD101F00046400020
:1006800041EB010111F4801F08BF013CF7D041EAA2
:10069000060195F0000F18BF704703F000465200A6
:1006A00043EB030313F4801F08BF013DF7D043EA77
:1006B0000603704794EA0C0F0CEA135518BF95EA2D
:1006C0000C0F0CD050EA410618BF52EA4306D1D1B4
:1006D00081EA030101F000414FF0000070BD50EAD3
:1006E000410606BF1046194652EA430619D094EA5D
:1006F0000C0F02D150EA013613D195EA0C0F05D147
:1007000052EA03361CBF104619460AD181EA03019A
:1007100001F0004141F0FE4141F470014FF0000052
:1007200070BD41F0FE4141F4780170BD70B54FF0ED
:10073000FF0C4CF4E06C1CEA11541DBF1CEA13556D
:1007400094EA0C0F95EA0C0F00F0A7F8A4EB05044F
:1007500081EA030E52EA03354FEA013100F0888046
:100760004FEA03334FF0805545EA131343EA12630F
:100770004FEA022245EA111545EA10654FEA0026C4
:100780000EF000419D4208BF964244F1FD0404F57D
:10079000407402D25B084FEA3202B61A65EB0305D9
:1007A0005B084FEA32024FF480104FF4002CB6EB96
:1007B000020E75EB030E22BFB61A754640EA0C0016
:1007C0005B084FEA3202B6EB020E75EB030E22BF56
:1007D000B61A754640EA5C005B084FEA3202B6EB97
:1007E000020E75EB030E22BFB61A754640EA9C0056
:1007F0005B084FEA3202B6EB020E75EB030E22BF26
:10080000B61A754640EADC0055EA060E18D04FEAE3
:10081000051545EA16754FEA06164FEAC30343EA83
:1008200052734FEAC2025FEA1C1CC0D111F4801F50
:100830000BD141EA00014FF000004FF0004CB6E749
:1008400011F4801F04BF01430020B4F1FD0C88BFE8
:10085000BCF5E06F3FF6AFAEB5EB030C04BFB6EBF3
:10086000020C5FEA500C50F1000041EB045170BDE6
:100870000EF0004E4EEA113114EB5C04C2BFD4EB13
:100880000C0541EA045170BD41F480114FF0000E97
:10089000013C90E645EA060E8DE60CEA135594EA13
:1008A0000C0F08BF95EA0C0F3FF43BAF94EA0C0F16
:1008B0000AD150EA01347FF434AF95EA0C0F7FF48B
:1008C00025AF104619462CE795EA0C0F06D152EADF
:1008D00003353FF4FDAE1046194622E750EA4106C3
:1008E00018BF52EA43067FF4C5AE50EA41047FF4D4
:1008F0000DAF52EA43057FF4EBAE12E74FEA410237
:1009000012F5001215D211D56FF47873B3EB625261
:1009100012D94FEAC12343F0004343EA505311F088
:10092000004F23FA02F018BF404270474FF000001A
:10093000704750EA013005D111F0004008BF6FF058
:10094000004070474FF00000704700BF80B483B094
:1009500000AF78600B46FB707B685A68FB78DB0061
:10096000134418460C37BD4680BC704780B483B032
:1009700000AF78607B681B6818460C37BD4680BCAA
:100980007047000080B483B000AF03460A46FB8086
:100990001346BB80054AFB881380054ABB88138039
:1009A00000BF0C37BD4680BC704700BF6800002008
:1009B0003000002080B483B000AF0346FB80064ABD
:1009C000FB881380044B1A88044B1A8000BF0C3735
:1009D000BD4680BC704700BF70000020740000203E
:1009E00080B483B000AF03460A46FB801346BB8049
:1009F000164AFB881380164ABB881380154B0022C9
:100A00001A70154B00221A80134BB3F90020134BB8
:100A10001A80134B01221A70114B1A78114B1A705D
:100A2000114B4FF6FF721A800F4B1A880F4B1A802A
:100A30000F4B01221A700F4B00221A700E4B00222E
:100A40001A6000BF0C37BD4680BC704764000020B0
:100A50006C0000204E0000206800002030000020C4
:100A6000730000203C000020700000207400002073
:100A70006A000020520000203800002090B589B0A4
:100A800000AF0446084611461A462346FB8003463B
:100A9000BB800B467B8013463B80B7F90020B7F93B
:100AA0000430D31A83EAE372A2EBE372B7F90210BF
:100AB000B7F90630CB1A002BB8BF5B429A42CCBFC5
:100AC00001230023DBB27B83B7F91A30002B0BD054
:100AD000FB883B83BB88FB803B8BBB807B88FB8296
:100AE0003B887B80FB8A3B80B7F90620B7F9023050
:100AF0009A420BDDFB88BB827B88FB80BB8A7B80B4
:100B0000BB887B823B88BB807B8A3B807A88FB8862
:100B1000D31A9BB23B82B7F90020B7F90430D31A3D
:100B2000002BB8BF5B42FB81B7F91030DA0F1344DA
:100B30005B10FB83B7F90420B7F900309A4202DA60
:100B40000123BB8331E04FF6FF73BB832DE0B7F980
:100B50001A30002B08D03A8EB7F90610B7F90430D6
:100B6000184600F032F807E03A8EB7F90410B7F9EA
:100B70000630184600F029F8FA8BFB89D31A9BB28D
:100B8000FB83B7F91E30002B09DABA88BB8B1344FC
:100B90009BB2BB80FA8B3B8A13449BB2FB83B7F9B1
:100BA00006309BB201339BB2FB80B7F90620B7F940
:100BB00002309A42CBDD00BF2437BD4690BD80B4E1
:100BC00000AF00BFBD4680BC704780B582B000AFAB
:100BD0000346FB800B46BB8013467B807A88B7F9BF
:100BE0000410B7F90630184601F014F900BF0837B1
:100BF000BD4680BD90B583B000AF0446084611469F
:100C00001A462346FB800346BB800B467B80134677
:100C10003B803B88B7F90220B7F90410B7F906000A
:100C200000F046F800BF0C37BD4690BD90B583B0CC
:100C300000AF0446084611461A462346FB80034689
:100C4000BB800B467B8013463B803B88B7F9022074
:100C5000B7F90410B7F9060000F053F800BF0C37DD
:100C6000BD4690BD90B585B002AF0446084611461A
:100C70001A462346FB800346BB800B467B80134607
:100C80003B80B7F90040B7F90220B7F90410B7F973
:100C900006003B8B0093234601F0ECF800BF0C37B5
:100CA000BD4690BD80B400AF00BFBD4680BC70475C
:100CB00090B585B002AF0446084611461A46234651
:100CC000FB800346BB800B467B8013463B80FFF7CF
:100CD00076FFBA887B8813449BB2013B9BB21CB25F
:100CE000B7F90620B7F90410B7F906003B8800935E
:100CF0002346FFF7C3FEFFF7D5FF00BF0C37BD4605
:100D000090BD90B585B002AF0446084611461A461C
:100D10002346FB800346BB800B467B8013463B800B
:100D2000FFF74DFFFA887B8813449BB2013B9BB2CF
:100D30001AB2B7F90440B7F90410B7F906003B88B6
:100D400000932346FFF79AFEFFF7ACFF00BF0C3776
:100D5000BD4690BD80B584B002AF0346FB80084B12
:100D6000B3F90020074BB3F90010FB8800930B4642
:100D70000021002001F07EF800BF0837BD4680BD8D
:100D8000640000206C00002090B587B000AF0446DE
:100D9000084611461A462346FB800346BB800B4695
:100DA0007B8013467B707B88C3F101039BB2FB827F
:100DB0000123BB827B881A46D203D31A5B009BB205
:100DC0007B8200233B827B88FB81A5E0B7F916304C
:100DD000002B0EDBB7F90E309BB2013B9BB2FB81BF
:100DE0007B8A02339BB27B82FA8A7B8A13449BB252
:100DF000FB82B7F910309BB201339BB23B82BB8AB6
:100E000002339BB2BB82FA8ABB8A13449BB2FB8239
:100E10007B7803F00403002B1BD0FA883B8A134431
:100E20009BB218B2BA88FB8913449BB21BB23A8DAD
:100E30001946FFF7CAFEFA88FB8913449BB218B221
:100E4000BA883B8A13449BB21BB23A8D1946FFF70E
:100E5000BCFE7B7803F00203002B1BD0FA883B8A90
:100E600013449BB218B2BA88FB89D31A9BB21BB247
:100E70003A8D1946FFF7A9FEFA88FB8913449BB205
:100E800018B2BA883B8AD31A9BB21BB23A8D194664
:100E9000FFF79BFE7B7803F00803002B1BD0FA883A
:100EA000FB89D31A9BB218B2BA883B8A13449BB20F
:100EB0001BB23A8D1946FFF788FEFA883B8AD31A8F
:100EC0009BB218B2BA88FB8913449BB21BB23A8D0D
:100ED0001946FFF77AFE7B7803F00103002B1BD045
:100EE000FA88FB89D31A9BB218B2BA883B8AD31A04
:100EF0009BB21BB23A8D1946FFF767FEFA883B8A10
:100F0000D31A9BB218B2BA88FB89D31A9BB21BB210
:100F10003A8D1946FFF759FEB7F91020B7F90E3090
:100F20009A42FFF653AF00BF1C37BD4690BD90B547
:100F300087B000AF0446084611461A462346FB8098
:100F40000346BB800B467B8013467B707B88C3F1D6
:100F500001039BB2FB820123BB827B881A46D2032A
:100F6000D31A5B009BB27B8200233B827B88FB8190
:100F70003B8ABB81FB897B81B7F928309BB2013367
:100F80009BB23B8596E0B7F91630002B0EDBB7F924
:100F90000E309BB2013B9BB2FB817B8A02339BB23A
:100FA0007B82FA8A7B8A13449BB2FB82B7F91030AA
:100FB0009BB201339BB23B82BB8A02339BB2BB82A2
:100FC000FA8ABB8A13449BB2FB82B7F91020B7F9A7
:100FD0000E3001339A4231DA7B7803F00103002BA3
:100FE00013D0FA883B8A13449BB218B2BA88FB89A3
:100FF000D31A9BB219B2FB895B009AB23B8D1344A2
:101000009BB21AB2BB8DFFF7F5FD7B7803F00203AC
:10101000002B13D0FA883B8AD31A9BB218B2BA8835
:10102000FB89D31A9BB219B2FB895B009AB23B8D44
:1010300013449BB21AB2BB8DFFF7DCFDB7F90E204B
:10104000B7F90A309A4233D07B7803F00103002BC2
:1010500013D0FA887B8913449BB218B2BA88BB8933
:10106000D31A9BB219B2BB895B009AB23B8D134471
:101070009BB21AB2BB8DFFF7BDFD7B7803F0020374
:10108000002B13D0FA887B89D31A9BB218B2BA8886
:10109000BB89D31A9BB219B2BB895B009AB23B8D54
:1010A00013449BB21AB2BB8DFFF7A4FDFB897B8171
:1010B0003B8ABB81B7F91020B7F90E309A42FFF690
:1010C00062AF00BF1C37BD4690BD90B587B002AF80
:1010D0000446084611461A462346FB800346BB8059
:1010E0000B467B8013463B80B7F90020B7F90230EE
:1010F0009342A8BF13461BB2DA0F13445B10FB8167
:10110000B7F92020B7F90E309A4201DDFB893B8404
:10111000FFF755FDFA883B8C13449BB218B27A88CE
:101120003B8C5B009BB2D31A9BB21AB2BB8CB7F953
:101130000410FFF77BFDFA883B8C13449BB218B276
:10114000BA883B8813449BB2013B9BB219B27A88A0
:101150003B8C5B009BB2D31A9BB21AB2BB8CFFF7DD
:1011600065FDBA883B8C13449BB219B23A883B8C1C
:101170005B009BB2D31A9BB21AB2BB8CB7F90600C4
:10118000FFF738FDFA887B8813449BB2013B9BB282
:1011900018B2BA883B8C13449BB219B23A883B8C84
:1011A0005B009BB2D31A9BB21AB2BB8CFFF722FD35
:1011B000FA883B8C13449BB218B2BA883B8C134418
:1011C0009BB219B2B7F92020BB8C00930123FFF723
:1011D000DBFDFA887B8813449AB23B8CD31A9BB20E
:1011E000013B9BB218B2BA883B8C13449BB219B234
:1011F000B7F92020BB8C00930223FFF7C5FDFA88C6
:101200007B8813449AB23B8CD31A9BB2013B9BB2AE
:1012100018B2BA883B8813449AB23B8CD31A9BB25B
:10122000013B9BB219B2B7F92020BB8C0093042379
:10123000FFF7AAFDFA883B8C13449BB218B2BA8818
:101240003B8813449AB23B8CD31A9BB2013B9BB2AE
:1012500019B2B7F92020BB8C00930823FFF794FD47
:10126000FFF720FD00BF1437BD4690BD90B587B095
:1012700002AF0446084611461A462346FB80034641
:10128000BB800B467B8013463B80B7F90020B7F943
:1012900002309342A8BF13461BB2DA0F13445B100F
:1012A000FB81B7F92020B7F90E309A4201DDFB89A6
:1012B0003B84FFF784FCFA883B8C13449BB218B242
:1012C0007A883B8C5B009BB2D31A9BB21AB2B7F9F7
:1012D0000040B7F90410BB8C00932346FFF7C2FC13
:1012E000FA887B8813449AB23B8CD31A9BB2013B99
:1012F0009BB218B2BA883B8C13449BB219B23A889D
:101300003B8C5B009BB2D31A9BB2013B9BB21BB2DE
:10131000B7F92040BA8C0192009301232246FFF7CF
:1013200006FEFA883B8C13449BB218B2BA883B8CF9
:1013300013449BB219B23A883B8C5B009BB2D31A20
:101340009BB2013B9BB21BB2B7F92040BA8C019211
:10135000009302232246FFF7EAFDFFF7A3FC00BF3C
:101360001437BD4690BD000090B58DB002AF044665
:10137000084611461A462346FB800346BB800B46AF
:10138000FB7013463B80B84B1B68002B40F0268156
:10139000B64BB3F90030B7F906209A4280F2EC81DF
:1013A000B34BB3F90030B7F904209A4280F2E481DC
:1013B000B7F9061097F83C2013465B0013445B0016
:1013C0000B44013B002BC0F2D781B7F9042097F8FA
:1013D0004030DB001344013B002BC0F2CD81A54B14
:1013E0001B7883F00103DBB2002B05D0FB78AF2B19
:1013F00002D9FB780133FB70FFF7E1FB002387F88C
:101400002730B1E0FA7813469B001A4497F9273049
:101410001344994AD35C87F82630002387F8253097
:1014200096E097F8263003F00103002B40D097F8A0
:101430003C30012B16D197F84030012B12D197F98F
:1014400027309AB2FB8813449BB218B297F9253023
:101450009AB2BB8813449BB21BB23A881946FFF775
:10146000B4FB69E097F927309BB297F83C2092B221
:1014700002FB03F39AB2FB8813449BB218B297F9AC
:1014800025309BB297F8402092B202FB03F39AB248
:10149000BB8813449BB219B297F83C301AB297F844
:1014A00040301CB23B8800932346FFF7DBFB43E050
:1014B0003A8F3B889A423FD097F83C30012B16D1A7
:1014C00097F84030012B12D197F927309AB2FB8858
:1014D00013449BB218B297F925309AB2BB881344D3
:1014E0009BB21BB23A8F1946FFF76FFB24E097F9C6
:1014F00027309BB297F83C2092B202FB03F39AB2DA
:10150000FB8813449BB218B297F925309BB297F829
:10151000402092B202FB03F39AB2BB8813449BB201
:1015200019B297F83C301AB297F840301CB23B8F92
:1015300000932346FFF796FB97F92530DBB2013382
:10154000DBB287F8253097F826305B0887F826301D
:1015500097F92530072B7FF764AF97F92730DBB277
:101560000133DBB287F8273097F92730042B7FF758
:1015700049AF3A8F3B889A422DD097F83C30012BE7
:101580000ED197F84030012B0AD1FB8805339BB26E
:1015900018B23B8FB7F904100822FFF72BFB1AE0B3
:1015A00097F83C309BB21A46920013449AB2FB88DB
:1015B00013449BB218B297F83C301AB297F84030F7
:1015C0009BB2DB009BB21CB2B7F904103B8F0093B7
:1015D0002346FFF747FBFFF765FBCEE0224B1B6876
:1015E00008331B78FA78D31AFB701F4B1B68FA7804
:1015F00011461846FFF7AAF978611B4B1B6818467D
:10160000FFF7B4F938617B691B887B847B699B7821
:10161000FB737B69DB78BB737B6905331B787B735A
:101620007B6906331B783B730023FB770023BB7772
:101630000023BB8300237B8397F83C30012B03D826
:1016400097F84030012B05D997F90D30BB8397F9F6
:101650000C307B83FFF7B3FA002387F8203082E059
:10166000002387F8213074E0380000206400002057
:101670006C000020520000206C3F0008BB7F5A1C09
:10168000BA7703F00703002B07D17B8C5A1C7A84AE
:101690001A463B6913441B78FB7797F91F30002BE0
:1016A0004FDA97F83C30012B20D197F84030012BCE
:1016B0001CD197F90D309AB2FB8813449AB297F86F
:1016C00021309BB213449BB218B297F90C309AB2F6
:1016D000BB8813449AB297F820309BB213449BB254
:1016E0001BB23A881946FFF770FA2AE0B7F91C20B6
:1016F00097F8213013449BB297F83C2092B202FB3A
:1017000003F39AB2FB8813449BB218B2B7F91A20BC
:1017100097F8203013449BB297F8402092B202FB16
:1017200003F39AB2BB8813449BB219B297F83C30CA
:101730001AB297F840301CB23B8800932346FFF75B
:1017400091FAFB7F5B00FB7797F82130013387F834
:10175000213097F82120FB7B9A428FD397F82030D5
:10176000013387F8203097F82020BB7B9A42FFF4A2
:1017700077AFFFF797FA00E000BF2C37BD4690BD6A
:10178000F0B58BB004AF0346FB71894B1B68002B8F
:1017900067D1FB790A2B11D1864B00221A80864B28
:1017A0001B789BB2DB009AB2844BB3F900309BB23A
:1017B00013449BB21AB2814B1A80F4E0FB790D2BD3
:1017C00000F0F1807E4B1B78002B21D0794BB3F9D0
:1017D000003019467B4B1B781A4613465B001344B6
:1017E0005B000B44784AB2F90020934210DD714B44
:1017F00000221A80704B1B789BB2DB009AB26F4BB1
:10180000B3F900309BB213449BB21AB26B4B1A80EF
:10181000684BB3F90000694BB3F900406B4B1E886D
:101820006B4B1B88674A127863490978FD790291EE
:101830000192009333462A462146FFF795FD614BFE
:101840001B789BB21A46520013445B009AB2594B64
:10185000B3F900309BB213449BB21AB2554B1A80B5
:10186000A1E0FB790A2B17D1524B00221A80524B70
:101870001B789BB24E4A12680C32127892B202FB6D
:1018800003F39AB24D4BB3F900309BB213449BB2B1
:101890001AB24A4B1A8086E0FB790D2B00F0838048
:1018A000434B1B6808331B78FB75FA79FB7D9A4222
:1018B00079D33F4B1B680A331B78FA799A4272D866
:1018C0003B4B1868FA79FB7DD31ADBB21946FFF758
:1018D0003DF838613B699B78FB733B69DB78BB73F0
:1018E000FB7B002B4CD0BB7B002B49D03B690533E5
:1018F0001B785BB2BB81324B1B78002B29D02D4B60
:10190000B3F9003019462F4B1B781846B7F90C2055
:10191000FB7B134403FB00F30B442B4AB2F900207A
:10192000934216DD234B00221A80234B1B789BB277
:101930001F4A12680C32127892B202FB03F39AB279
:101940001E4BB3F900309BB213449BB21AB21B4B2F
:101950001A80184BB3F90000184BB3F900401B4B29
:101960001E881B4B1B88174A127813490978FD798A
:1019700002910192009333462A462146FFF7F4FC78
:101980003B6904331B789BB20E4A127892B202FB79
:1019900003F39AB2074BB3F900309BB213449BB2E6
:1019A0001AB2044B1A8000BF1C37BD46F0BD00BF01
:1019B0003800002068000020730000203000002064
:1019C0006A0000203C000020640000207400002019
:1019D0007000002080B582B000AF786007E07B68BF
:1019E0001B781846FFF7CCFE7B6801337B607B6871
:1019F0001B78002BF3D100BF0837BD4680BD000027
:101A000080B483B000AF03460A46FB711346BB7136
:101A1000FB79002B01D0FB7900E00123074A13700A
:101A2000BB79002B01D0BB7900E00123044A13707D
:101A300000BF0C37BD4680BC704700BF3C00002093
:101A40007300002080B483B000AF78607B68002B07
:101A50000DD0114B1B68002B16D1104BB3F9003081
:101A60009BB206339BB21AB20C4B1A800CE00A4BA5
:101A70001B68002B08D0094BB3F900309BB2063B22
:101A80009BB21AB2054B1A80034A7B68136000BFF1
:101A90000C37BD4680BC7047380000203000002065
:101AA00090B589B006AF0446084611461A4623464B
:101AB000FB800346BB800B467B8013463B80FA8845
:101AC0007B885B089BB2D31A9BB218B2BA883B885A
:101AD0005B089BB2D31A9BB219B23C887A8897F8FC
:101AE000283004937B6A03933B8C0293BB8B019356
:101AF0003B8B0093234600F004F800BF0C37BD4633
:101B000090BD90B589B006AF0446084611461A4606
:101B10002346FB800346BB800B467B8013463B80FD
:101B20003C887A88B7F90410B7F9060097F828308E
:101B3000059397F8283004937B6A03933B8C0293B8
:101B4000BB8B01933B8B0093234600F005F800BF4D
:101B50000C37BD4690BD000090B583B000AF044681
:101B6000084611461A462346FB800346BB800B46B7
:101B70007B8013463B80134AFB881380124ABB8844
:101B80001380124A7B881380114A3B881380114AC4
:101B90003B8B1380104ABB8B1380104A3B8C138005
:101BA0000F4A97F8283013700E4A97F82C301370AC
:101BB0000922796A0C4802F097F900BF0C37BD463C
:101BC00090BD00BF620000206600002040000020A1
:101BD000360000203400002050000020600000206B
:101BE000320000206E0000204400002000000000B1
:101BF000F0B587B002AF0346FB71FB7983F00103B8
:101C0000DBB2002B09D06C4B1B88FB816B4B1B8814
:101C1000BB816B4B1B887B8108E0694B1B88FB8178
:101C2000664B1B88BB81644B1B887B81654B1A8884
:101C3000654B1B889A4207D2624B1B88002B00DA47
:101C400003339B10DBB206E05F4B1B88002B00DAEE
:101C500003339B10DBB27B725C4BB3F900005C4B2F
:101C6000B3F90010574B1B881CB2574B1B881DB291
:101C70007B7A1BB2FA89019200932B462246FFF72A
:101C8000F5FA524BB3F90000514BB3F900104D4B2C
:101C90001B881CB24C4B1B881DB27B7A1BB2BA89C5
:101CA000019200932B462246FFF70FFA474BB3F9F8
:101CB00000301846FEF7A6FB04460D46414B1B8834
:101CC0001846FEF79FFB4FF00002424BFEF72EFD39
:101CD00002460B4620462946FEF748FA03460C46C4
:101CE00025461C463C48FEF733FA02463B4B1B7820
:101CF00003FB02F213465B0013441846FEF772FB27
:101D000002460B4620462946FEF72EFA03460C46AD
:101D100018462146FEF7F2FD03461CB22C4BB3F9E0
:101D200000301846FEF76EFB05460E46264B1B8814
:101D30001846FEF767FB1EA3D3E90023FEF7F6FC67
:101D400002460B4628463146FEF710FA02460B467D
:101D500015461E46224B1B789B001846FEF752FB89
:101D600002460B4628463146FEF7FEF902460B4670
:101D700010461946FEF7C2FD03461BB2194620461F
:101D8000FEF700FE7B891846FEF714FE134B1A7807
:101D9000134B1B7819461046FFF732FE0E48FFF72B
:101DA00019FE00BF1437BD46F0BD00BFAFF3008081
:101DB0009A9999999999F93F500000203400002090
:101DC000600000204000002036000020620000205B
:101DD0006600002000000C4044000020320000207B
:101DE0006E00002080B400AF034B1B881BB2184666
:101DF000BD4680BC704700BF7800002080B400AFB3
:101E0000034B5B881BB21846BD4680BC704700BFC1
:101E10007800002080B582B000AF0346FB800B46FF
:101E2000BB8013467B80B7F90630002B1EDBB7F969
:101E30000430002B1ADBFFF7D5FF03461A46B7F92B
:101E40000630934212DCFFF7D9FF03461A46B7F972
:101E5000043093420ADCF888B988FA88BB8800F01D
:101E60004BFA7B88184600F001F900E000BF083704
:101E7000BD4680BD90B585B000AF0446084611460A
:101E80001A462346FB800346BB800B467B801346E5
:101E90003B80B7F90230002B08DA7B885B429BB2AB
:101EA0007B80FA887B88D31A9BB2FB80FA887B8878
:101EB00013449BB2FB81B7F90630002B01DA0023F3
:101EC000FB80FFF78FFF03461A46B7F90E309342A7
:101ED00003DDFFF787FF0346FB81FA89FB88D31AEE
:101EE0009BB27B80B7F90030002B08DA3B885B425D
:101EF0009BB23B80BA883B88D31A9BB2BB80BA881E
:101F00003B8813449BB2FB81B7F90430002B01DA04
:101F10000023BB80FFF772FF03461A46B7F90E3065
:101F2000934203DDFFF76AFF0346FB81FA89BB8812
:101F3000D31A9BB23B80F888B988FA887B8813440F
:101F40009BB2013B9CB2BA883B8813449BB2013BD5
:101F50009BB2224600F0D0F9B7F90020B7F9023061
:101F60009A4214DD3B88FB817B883B80FB897B8028
:101F70000DE07B88FB813B8C184600F077F8FB89ED
:101F8000013B9BB2FB81B7F90E30002BF3D1B7F9BF
:101F900000309AB2013A92B23A80002BE9DC00BFDD
:101FA0001437BD4690BD000080B582B000AF034637
:101FB000FB80084AFB88D36000220421064801F018
:101FC00007F801220421044801F002F800BF083795
:101FD000BD4680BD000C01400008014080B582B0C4
:101FE00000AF0346FB8000220221054800F0F0FF0D
:101FF000FB881846FFF7D8FF00BF0837BD4680BDF5
:102000000008014080B582B000AF0346FB8001228A
:102010000221054800F0DCFFFB881846FFF7C4FFEB
:1020200000BF0837BD4680BD0008014080B582B0C2
:1020300000AF03460A46FB801346BB80FB88184668
:10204000FFF7CCFFBB881846FFF7DCFF00BF08375F
:10205000BD4680BD80B500AF034B1B891846FFF716
:10206000BDFF00BF80BD00BF7800002080B582B0FA
:1020700000AF0346FB8001220221054800F0A8FFC3
:10208000FB881846FFF790FF00BF0837BD4680BDAC
:102090000008014080B584B000AF0346FB800022F9
:1020A0001021144800F094FF134B1B88013B9AB297
:1020B000114B5B88013B9BB20021002000F01CF912
:1020C0000023FB6006E0FB881846FFF7CFFFFB68A4
:1020D0000133FB60084B5B881A46074B1B8803FBE8
:1020E00002F31A46FB689342EDD300BF1037BD469A
:1020F00080BD00BF000801407800002080B500AF1F
:1021000000220821074800F063FF642000F060FC13
:1021100001220821034800F05BFF322000F058FC48
:1021200000BF80BD0008014080B500AFFFF7E6FFAB
:10213000F120FFF753FF3620FFF764FF0420FFF77D
:1021400061FF0020FFF75EFF3C20FFF75BFF0F20E1
:10215000FFF758FF8F20FFF755FFF220FFF73EFFF4
:102160001820FFF74FFFA320FFF74CFF1220FFF7C7
:1021700049FF0220FFF746FFB220FFF743FF12207E
:10218000FFF740FFFF20FFF73DFF1020FFF73AFF6A
:102190000020FFF737FFF820FFF720FF2120FFF78F
:1021A00031FF0420FFF72EFFF920FFF717FF002073
:1021B000FFF728FF0820FFF725FF3620FFF70EFF67
:1021C0000820FFF71FFFB420FFF708FF0020FFF7EC
:1021D00019FFC120FFF702FF4120FFF713FFC520C1
:1021E000FFF7FCFE0020FFF70DFF9120FFF70AFF2D
:1021F0008020FFF707FF0020FFF704FFE020FFF734
:10220000EDFE0F20FFF7FEFE1F20FFF7FBFE1C2058
:10221000FFF7F8FE0C20FFF7F5FE0F20FFF7F2FEA8
:102220000820FFF7EFFE4820FFF7ECFE9820FFF7AD
:10223000E9FE3720FFF7E6FE0A20FFF7E3FE132052
:10224000FFF7E0FE0420FFF7DDFE1120FFF7DAFEC6
:102250000D20FFF7D7FE0020FFF7D4FEE120FFF7A7
:10226000BDFE0F20FFF7CEFE3220FFF7CBFE2E2063
:10227000FFF7C8FE0B20FFF7C5FE0D20FFF7C2FEDB
:102280000520FFF7BFFE4720FFF7BCFE7520FFF7D4
:10229000B9FE3720FFF7B6FE0620FFF7B3FE102089
:1022A000FFF7B0FE0320FFF7ADFE2420FFF7AAFEE4
:1022B0002020FFF7A7FE0020FFF7A4FE3A20FFF73B
:1022C0008DFE5520FFF79EFE1120FFF787FE36207A
:1022D000FFF784FE2820FFF795FE782000F078FBBA
:1022E0002920FFF77BFE012000F058F848F230402B
:1022F000FFF7D0FE00BF80BD90B583B000AF0446AD
:10230000084611461A462346FB800346BB800B460F
:102310007B8013463B80204B5B891846FFF75EFEAF
:10232000FB881B0A9BB21846FFF76CFEFB88DBB2EA
:102330009BB21846FFF766FE7B881B0A9BB21846C5
:10234000FFF760FE7B88DBB29BB21846FFF75AFEB0
:10235000114B9B891846FFF741FEBB881B0A9BB2B5
:102360001846FFF74FFEBB88DBB29BB21846FFF75B
:1023700049FE3B881B0A9BB21846FFF743FE3B8889
:10238000DBB29BB21846FFF73DFEFFF763FE00BFCE
:102390000C37BD4690BD00BF7800002080B582B0EC
:1023A00000AF0346FB71284B2A225A81264B2B2271
:1023B0009A81254B2C221A81FB79032B3ED801A24E
:1023C00052F823F0D5230008EF2300080924000861
:1023D000232400081C4B4FF4A0721A801A4B4FF4B0
:1023E000F0725A8048213620FFF720FE27E0164B76
:1023F0004FF4F0721A80144B4FF4A0725A803821B7
:102400003620FFF713FE1AE00F4B4FF4A0721A802C
:102410000D4B4FF4F0725A8088213620FFF706FEEC
:102420000DE0094B4FF4F0721A80074B4FF4A07285
:102430005A80E8213620FFF7F9FD00E000BF00BF19
:102440000837BD4680BD00BF7800002080B586B04B
:1024500006AF00F05BFA00F089F800F0F3F800F046
:10246000C7F8FFF761FE4FF4A0714FF4F070FEF76C
:10247000B7FA0020FEF76EFC3548FFF7E3FA4FF697
:10248000FF70FEF797FA28217820FEF77BFA314893
:10249000FFF7A0FA012304932F4B03934FF6FF732A
:1024A000029348F21F430193002300935023962286
:1024B00078218C20FFF7F4FA0020FFF799FB012325
:1024C0000493264B03934FF6FF73029346F28C530B
:1024D0000193002300935023962278214FF4AF708C
:1024E000FFF7DEFA0020FFF783FB012304931C4B68
:1024F00003934FF6FF73029343F2B96301930023F2
:10250000009350239622E6218C20FFF7C9FA002081
:10251000FFF76EFB01230493124B03934FF6FF73F7
:1025200002931F2301930023009350239622E62158
:102530004FF4AF70FFF7B4FA0020FFF759FB4FF4E8
:102540000051094800F05CFD642000F041FAF6E714
:102550004C5600082C3F0008383F0008403F000858
:10256000483F0008503F00080010014080B590B07F
:1025700000AF07F1180328220021184601F0ACFC37
:102580003B1D00221A605A609A60DA601A610223C9
:10259000BB610123BB621023FB6202237B63002328
:1025A000BB634FF46013FB6307F11803184600F098
:1025B00041FD0346002B01D000F0BCF80F237B60E7
:1025C0000223BB600023FB604FF480633B61002368
:1025D0007B613B1D0221184600F0ACFF0346002B37
:1025E00001D000F0A7F800BF4037BD4680BD000015
:1025F00080B500AF114B124A1A60104B4FF4E13214
:102600005A600E4B00229A600C4B0022DA600B4B92
:1026100000221A61094B0C225A61084B00229A6170
:10262000064B0022DA61054801F022F90346002B2F
:1026300001D000F07FF800BF80BD00BF88000020FF
:102640000038014080B588B000AF07F110030022C8
:102650001A605A609A60DA60324B9B69314A43F0E3
:10266000100393612F4B9B6903F01003FB60FB6821
:102670002C4B9B692B4A43F004039361294B9B69C4
:1026800003F00403BB60BB68264B9B69254A43F0FB
:1026900008039361234B9B6903F008037B607B680D
:1026A00000224FF40051204800F092FC00221E212D
:1026B0001E4800F08DFC00224FF6FF711C4800F010
:1026C00087FC4FF400533B6101237B610023BB6116
:1026D0000323FB6107F110031946134800F01EFBAA
:1026E0001E233B6101237B610023BB610323FB614C
:1026F00007F1100319460D4800F010FB4FF6FF7369
:102700003B6101237B610023BB610323FB6107F174
:1027100010031946064800F001FB00BF2037BD46F4
:1027200080BD00BF001002400010014000080140C1
:10273000000C014080B400AF00BFBD4680BC7047B4
:1027400080B485B000AF154B9B69144A43F0010378
:102750009361124B9B6903F00103BB60BB680F4B95
:10276000DB690E4A43F08053D3610C4BDB6903F005
:1027700080537B607B680A4B5B68FB60FB6823F0DF
:10278000E063FB60FB6843F00073FB60044AFB6896
:10279000536000BF1437BD4680BC70470010024034
:1027A0000000014080B588B000AF786007F11003E9
:1027B00000221A605A609A60DA607B681B68204ABF
:1027C000934239D11F4B9B691E4A43F48043936166
:1027D0001C4B9B6903F48043FB60FB68194B9B69AE
:1027E000184A43F004039361164B9B6903F00403FA
:1027F000BB60BB684FF400733B6102237B61032322
:10280000FB6107F1100319460F4800F087FA4FF4F7
:1028100080633B6100237B610023BB6107F11003F0
:102820001946094800F07AFA00220021252000F01C
:10283000C8F9252000F0E1F900BF2037BD4680BD72
:1028400000380140001002400008014080B400AF91
:1028500000BFBD4680BC704780B400AFFEE780B4C7
:1028600000AFFEE780B400AFFEE780B400AFFEE744
:1028700080B400AF00BFBD4680BC704780B400AFDD
:1028800000BFBD4680BC704780B400AF00BFBD46EE
:1028900080BC704780B500AF00F07EF800BF80BDFF
:1028A00080B500AF024801F031F800BF80BD00BF25
:1028B0008800002080B400AF00BFBD4680BC7047D8
:1028C000002103E00B4B5B58435004310A480B4B8B
:1028D00042189A42F6D30A4A02E0002342F8043B27
:1028E000084B9A42F9D3FFF7E5FF01F0D1FAFFF761
:1028F000ADFD70477C560008000000200C00002051
:102900000C000020CC000020FEE7000080B500AFE6
:10291000084B1B68074A43F010031360032000F0C4
:1029200045F9002000F008F8FFF70AFF00231846D9
:1029300080BD00BF0020024080B582B000AF78604B
:10294000124B1A68124B1B7819464FF47A73B3FB7B
:10295000F1F3B2FBF3F3184600F05DF90346002BE8
:1029600001D001230EE07B680F2B0AD80022796882
:102970004FF0FF3000F025F9064A7B681360002312
:1029800000E0012318460837BD4680BD0000002046
:10299000080000200400002080B400AF054B1B7825
:1029A0001A46054B1B681344034A136000BFBD461B
:1029B00080BC704708000020C800002080B400AF31
:1029C000024B1B681846BD4680BC7047C8000020FB
:1029D00080B584B000AF7860FFF7F0FFB8607B6827
:1029E000FB60FB68B3F1FF3F05D0094B1B781A462B
:1029F000FB681344FB6000BFFFF7E0FF0246BB68C3
:102A0000D31AFA689A42F7D800BF1037BD4680BD86
:102A10000800002080B485B000AF78607B6803F0C8
:102A20000703FB600C4BDB68BB60BA684FF6FF0323
:102A30001340BB60FB681A02BB68134343F0BF63DB
:102A400043F40033BB60044ABB68D36000BF143753
:102A5000BD4680BC704700BF00ED00E080B400AF11
:102A6000044BDB681B0A03F007031846BD4680BC15
:102A7000704700BF00ED00E080B483B000AF0346B4
:102A8000FB7197F90730002B0BDBFB7903F01F027A
:102A9000064997F907305B09012000FA02F241F874
:102AA000232000BF0C37BD4680BC704700E100E02A
:102AB00080B483B000AF03463960FB7197F90730EB
:102AC000002B0ADB3B68DAB20C4997F90730120198
:102AD000D2B20B4483F800230AE03B68DAB208491B
:102AE000FB7903F00F03043B1201D2B20B441A76B8
:102AF00000BF0C37BD4680BC704700BF00E100E05E
:102B000000ED00E080B489B000AFF860B9607A6091
:102B1000FB6803F00703FB61FB69C3F10703042BA8
:102B200028BF0423BB61FB690433062B02D9FB6970
:102B3000033B00E000237B614FF0FF32BB6902FAE8
:102B400003F3DA43BB681A407B699A404FF0FF31C8
:102B50007B6901FA03F3D9437B680B4013431846A2
:102B60002437BD4680BC704780B582B000AF786026
:102B70007B68013BB3F1807F01D301230FE00A4A58
:102B80007B68013B53600F214FF0FF30FFF790FF50
:102B9000054B00229A60044B07221A600023184656
:102BA0000837BD4680BD00BF10E000E080B582B0B0
:102BB00000AF78607868FFF72DFF00BF0837BD468B
:102BC00080BD80B586B000AF0346B9607A60FB7304
:102BD00000237B61FFF742FF78617A68B968786902
:102BE000FFF790FF024697F90F3011461846FFF79E
:102BF0005FFF00BF1837BD4680BD80B582B000AF13
:102C00000346FB7197F907301846FFF735FF00BF01
:102C10000837BD4680BD80B582B000AF7860786867
:102C2000FFF7A2FF034618460837BD4680BD0000E7
:102C300080B584B000AF78600023FB737B6893F8A5
:102C40002130022B05D07B6804229A630123FB7399
:102C500051E07B681B681A687B681B6822F00E02D3
:102C60001A607B681B681A687B681B6822F0010287
:102C70001A607B681B68224A934229D07B681B68D4
:102C8000204A934222D07B681B681F4A93421AD085
:102C90007B681B681D4A934212D07B681B681C4AE4
:102CA00093420AD07B681B681A4A934202D14FF4C0
:102CB00080130EE04FF080730BE04FF4803308E098
:102CC0004FF4805305E04FF4807302E0102300E0DE
:102CD0000123114A53607B68012283F821207B681D
:102CE000002283F820207B685B6B002B03D07B687D
:102CF0005B6B78689847FB7B18461037BD4680BDF4
:102D0000080002401C000240300002404400024023
:102D1000580002406C0002400000024080B48BB0BA
:102D200000AF7860396000237B6200233B6227E1BB
:102D300001227B6A02FA03F3FB613B681B68FA69B4
:102D40001340BB61BA69FB699A4240F016813B6847
:102D50005B68122B34D0122B0DD8022B2BD0022BF8
:102D600004D8002B31D0012B1CD048E0032B43D0DA
:102D7000112B1BD043E0894A934226D0874A9342C5
:102D800006D8874A934220D0864A93421DD036E027
:102D9000854A934219D0854A934216D0844A934279
:102DA00013D02CE03B68DB683B6228E03B68DB68C3
:102DB00004333B6223E03B68DB6808333B621EE080
:102DC0003B68DB680C333B6219E03B689B68002B77
:102DD00002D104233B6212E03B689B68012B05D1C2
:102DE00008233B627B68FA691A6108E008233B62AA
:102DF0007B68FA695A6102E000233B6200BFBB694D
:102E0000FF2B01D87B6801E07B6804337B61BB69E1
:102E1000FF2B02D87B6A9B0002E07B6A083B9B0089
:102E20003B617B691A680F213B6901FA03F3DB43BD
:102E30001A40396A3B6901FA03F31A437B691A6045
:102E40003B685B6803F08053002B00F09680594B81
:102E50009B69584A43F001039361564B9B6903F009
:102E60000103BB60BB68544A7B6A9B08023352F87B
:102E70002330FB607B6A03F003039B000F2202FAFE
:102E800003F3DB43FA681340FB607B684B4A9342D1
:102E900013D07B684A4A93420DD07B68494A9342DB
:102EA00007D07B68484A934201D1032306E00423FC
:102EB00004E0022302E0012300E000237A6A02F02A
:102EC000030292009340FA681343FB603A497B6A1D
:102ED0009B080233FA6841F823203B685B6803F4DF
:102EE0008033002B06D0394B1A683849BB6913432D
:102EF0000B6006E0354B1A68BB69DB43334913406E
:102F00000B603B685B6803F40033002B06D02F4B4B
:102F10005A682E49BB6913434B6006E02B4B5A6835
:102F2000BB69DB43294913404B603B685B6803F492
:102F30008013002B06D0254B9A682449BB691343A4
:102F40008B6006E0214B9A68BB69DB431F49134045
:102F50008B603B685B6803F40013002B06D01B4BAF
:102F6000DA681A49BB691343CB6006E0174BDA688D
:102F7000BB69DB4315491340CB607B6A01337B623D
:102F80003B681A687B6A22FA03F3002B7FF4D0AE09
:102F900000BF2C37BD4680BC704700BF0000211029
:102FA000000011100000121000003110000032105B
:102FB0000000221000100240000001400008014003
:102FC000000C0140001001400014014000040140C9
:102FD00080B483B000AF78600B467B8013467B7073
:102FE0007B78002B03D07A887B681A6103E07B88AA
:102FF0001A047B681A6100BF0C37BD4680BC70475D
:1030000080B485B000AF78600B467B807B68DB685E
:10301000FB607A88FB6813401A04FB68D9437B88FD
:103020000B401A437B681A6100BF1437BD4680BC51
:103030007047000080B586B000AF78607B68002BD9
:1030400001D101236CE27B681B6803F00103002BB4
:1030500000F08780924B5B6803F00C03042B0CD0CC
:103060008F4B5B6803F00C03082B12D18C4B5B6811
:1030700003F48033B3F5803F0BD1894B1B6803F415
:103080000033002B6CD07B685B68002B68D1012378
:1030900046E27B685B68B3F5803F06D1804B1B68D6
:1030A0007F4A43F4803313602EE07B685B68002B1B
:1030B0000CD17B4B1B687A4A23F480331360784B26
:1030C0001B68774A23F4802313601DE07B685B68EC
:1030D000B3F5A02F0CD1724B1B68714A43F48023C7
:1030E00013606F4B1B686E4A43F4803313600BE030
:1030F0006B4B1B686A4A23F480331360684B1B6870
:10310000674A23F4802313607B685B68002B13D02D
:10311000FFF754FC386108E0FFF750FC02463B69BA
:10312000D31A642B01D90323FAE15D4B1B6803F426
:103130000033002BF0D014E0FFF740FC386108E0CA
:10314000FFF73CFC02463B69D31A642B01D90323E9
:10315000E6E1534B1B6803F40033002BF0D100E091
:1031600000BF7B681B6803F00203002B63D04C4B4D
:103170005B6803F00C03002B0BD0494B5B6803F03A
:103180000C03082B1CD1464B5B6803F48033002BE7
:1031900016D1434B1B6803F00203002B05D07B685C
:1031A0001B69012B01D00123BAE13D4B1B6823F0C1
:1031B000F8027B685B69DB00394913430B603AE036
:1031C0007B681B69002B20D0364B01221A60FFF769
:1031D000F5FB386108E0FFF7F1FB02463B69D31AC3
:1031E000022B01D903239BE12D4B1B6803F0020343
:1031F000002BF0D02A4B1B6823F0F8027B685B6938
:10320000DB00274913430B6015E0264B00221A60B0
:10321000FFF7D4FB386108E0FFF7D0FB02463B69BB
:10322000D31A022B01D903237AE11D4B1B6803F04B
:103230000203002BF0D17B681B6803F00803002B0E
:103240003AD07B689B69002B19D0174B01221A607A
:10325000FFF7B4FB386108E0FFF7B0FB02463B69BB
:10326000D31A022B01D903235AE10D4B5B6A03F0F9
:103270000203002BF0D0012000F0DCFA1CE00A4B26
:1032800000221A60FFF79AFB38610FE0FFF796FB08
:1032900002463B69D31A022B08D9032340E100BF41
:1032A0000010024000004242800442429E4B5B6A92
:1032B00003F00203002BE9D17B681B6803F00403D1
:1032C000002B00F0A6800023FB75974BDB6903F011
:1032D0008053002B0DD1944BDB69934A43F080530C
:1032E000D361914BDB6903F08053BB60BB68012362
:1032F000FB758E4B1B6803F48073002B18D18B4B2E
:103300001B688A4A43F480731360FFF757FB3861E8
:1033100008E0FFF753FB02463B69D31A642B01D93F
:103320000323FDE0814B1B6803F48073002BF0D076
:103330007B68DB68012B06D17B4B1B6A7A4A43F022
:10334000010313622DE07B68DB68002B0CD1764B08
:103350001B6A754A23F001031362734B1B6A724A9E
:1033600023F0040313621CE07B68DB68052B0CD19F
:103370006D4B1B6A6C4A43F0040313626A4B1B6A71
:10338000694A43F0010313620BE0674B1B6A664A0C
:1033900023F001031362644B1B6A634A23F00403A6
:1033A00013627B68DB68002B15D0FFF707FB3861E1
:1033B0000AE0FFF703FB02463B69D31A41F2883269
:1033C000934201D90323ABE0574B1B6A03F002037E
:1033D000002BEED014E0FFF7F1FA38610AE0FFF7B6
:1033E000EDFA02463B69D31A41F28832934201D981
:1033F000032395E04C4B1B6A03F00203002BEED134
:10340000FB7D012B05D1484BDB69474A23F08053F4
:10341000D3617B68DB69002B00F08180424B5B68E5
:1034200003F00C03082B61D07B68DB69022B46D1CB
:103430003F4B00221A60FFF7C1FA386108E0FFF73E
:10344000BDFA02463B69D31A022B01D9032367E078
:10345000354B1B6803F00073002BF0D17B681B6AAF
:10346000B3F5803F08D1304B5B6823F400327B68B2
:103470009B682D4913434B602B4B5B6823F47412FC
:103480007B68196A7B685B6A0B43274913434B606F
:10349000274B01221A60FFF791FA386108E0FFF725
:1034A0008DFA02463B69D31A022B01D9032337E078
:1034B0001D4B1B6803F00073002BF0D02FE01C4B5A
:1034C00000221A60FFF77AFA386108E0FFF776FA0F
:1034D00002463B69D31A022B01D9032320E0124B89
:1034E0001B6803F00073002BF0D118E07B68DB69E8
:1034F000012B01D1012313E00B4B5B68FB60FB68E0
:1035000003F480327B681B6A9A4206D1FB6803F49D
:1035100070127B685B6A9A4201D0012300E00023AD
:1035200018461837BD4680BD0010024000700040AC
:103530006000424280B584B000AF786039607B683B
:10354000002B01D10123D0E06A4B1B6803F0070375
:103550003A689A4210D9674B1B6823F00702654905
:103560003B6813430B60634B1B6803F007033A6827
:103570009A4201D00123B8E07B681B6803F0020384
:10358000002B20D07B681B6803F00403002B05D0C0
:10359000594B5B68584A43F4E06353607B681B688F
:1035A00003F00803002B05D0534B5B68524A43F4E9
:1035B00060535360504B5B6823F0F0027B689B685C
:1035C0004D4913434B607B681B6803F00103002BDC
:1035D00040D07B685B68012B07D1474B1B6803F425
:1035E0000033002B15D101237FE07B685B68022B41
:1035F00007D1414B1B6803F00073002B09D1012355
:1036000073E03D4B1B6803F00203002B01D1012343
:103610006BE0394B5B6823F003027B685B683649DB
:1036200013434B60FFF7CAF9F8600AE0FFF7C6F9E9
:103630000246FB68D31A41F28832934201D9032330
:1036400053E02D4B5B6803F00C027B685B689B00CA
:103650009A42EBD1274B1B6803F007033A689A4262
:1036600010D2244B1B6823F0070222493B68134306
:103670000B60204B1B6803F007033A689A4201D0A5
:10368000012332E07B681B6803F00403002B08D0A1
:10369000194B5B6823F4E0627B68DB6816491343CF
:1036A0004B607B681B6803F00803002B09D0124BAA
:1036B0005B6823F460527B681B69DB000E4913438F
:1036C0004B6000F021F801460B4B5B681B0903F0CF
:1036D0000F030A4AD35C21FA03F3094A1360094B2A
:1036E0001B681846FFF728F9002318461037BD4617
:1036F00080BD00BF00200240001002405C56000860
:10370000000000200400002090B48AB000AF2A4BD3
:103710003C1D0FCB84E80F00284B1B883B80002307
:10372000FB610023BB6100237B6200237B610023DC
:103730003B62234B5B68FB61FB6903F00C03042BCA
:1037400002D0082B03D02DE01E4B3B622DE0FB691D
:103750009B0C03F00F0307F12802134413F8243CD9
:103760007B61FB6903F48033002B13D0144B5B683F
:103770005B0C03F0010307F12802134413F8283C03
:10378000BB617B690F4A02FB03F2BB69B2FBF3F337
:103790007B6204E07B690C4A02FB03F37B627B6A79
:1037A0003B6202E0094B3B6200BF3B6A1846283788
:1037B000BD4690BC704700BF583F0008683F0008F6
:1037C000001002400024F40000093D0000127A00BD
:1037D00080B400AF024B1B681846BD4680BC7047E2
:1037E0000000002080B500AFFFF7F2FF0146054B57
:1037F0005B681B0A03F00703034AD35C21FA03F357
:10380000184680BD001002406C56000880B500AF1D
:10381000FFF7DEFF0146054B5B68DB0A03F0070399
:10382000034AD35C21FA03F3184680BD001002401E
:103830006C56000880B485B000AF78600A4B1B68F6
:103840000A4AA2FB03235B0A7A6802FB03F3FB60CC
:1038500000BFFB685A1EFA60002BF9D100BF143775
:10386000BD4680BC704700BF00000020D34D6210F1
:1038700080B582B000AF78607B68002B01D1012356
:103880003FE07B6893F83930DBB2002B06D17B68D0
:10389000002283F838207868FEF784FF7B682422B2
:1038A00083F839207B681B68DA687B681B6822F420
:1038B0000052DA60786800F05DFA7B681B681A696C
:1038C0007B681B6822F490421A617B681B685A6906
:1038D0007B681B6822F02A025A617B681B68DA68E1
:1038E0007B681B6842F40052DA607B680022DA636E
:1038F0007B68202283F839207B68202283F83A20D5
:10390000002318460837BD4680BD000080B588B04A
:1039100000AF78607B681B681B68FB617B681B6875
:10392000DB68BB617B681B685B697B6100233B6173
:103930000023FB60FB6903F00F033B613B69002B35
:103940000DD1FB6903F02003002B08D0BB6903F005
:103950002003002B03D0786800F08BF9D1E03B699D
:10396000002B00F0B0807B6903F00103002B05D130
:10397000BB6903F49073002B00F0A580FB6903F092
:103980000103002B0AD0BB6903F48073002B05D020
:103990007B68DB6B43F001027B68DA63FB6903F051
:1039A0000403002B0AD07B6903F00103002B05D030
:1039B0007B68DB6B43F002027B68DA63FB6903F030
:1039C0000203002B0AD07B6903F00103002B05D012
:1039D0007B68DB6B43F004027B68DA63FB6903F00E
:1039E0000803002B0FD0BB6903F02003002B04D188
:1039F0007B6903F00103002B05D07B68DB6B43F090
:103A000008027B68DA637B68DB6B002B78D0FB698C
:103A100003F02003002B07D0BB6903F02003002B29
:103A200002D0786800F025F97B681B685B6903F0B9
:103A30004003002B14BF01230023DBB2FB607B6833
:103A4000DB6B03F00803002B02D1FB68002B31D0A5
:103A5000786800F076F87B681B685B6903F04003C8
:103A6000002B23D07B681B685A697B681B6822F097
:103A700040025A617B685B6B002B13D07B685B6BE9
:103A8000214A5A637B685B6B1846FFF7D1F80346FF
:103A9000002B16D07B685B6B5B6B7A68526B1046B1
:103AA00098470EE0786800F043F80AE0786800F084
:103AB0003FF806E0786800F03BF87B680022DA63A4
:103AC0001EE000BF1CE0FB6903F08003002B08D060
:103AD000BB6903F08003002B03D0786800F062F824
:103AE0000FE0FB6903F04003002B0AD0BB6903F031
:103AF0004003002B05D0786800F0A3F800BF00E079
:103B000000BF2037BD4680BD7D3B000880B483B038
:103B100000AF786000BF0C37BD4680BC704780B4F2
:103B200083B000AF786000BF0C37BD4680BC7047E3
:103B300080B483B000AF786000BF0C37BD4680BC56
:103B4000704780B483B000AF78607B681B68DA6828
:103B50007B681B6822F49072DA607B681B685A6984
:103B60007B681B6822F001025A617B68202283F87F
:103B70003A2000BF0C37BD4680BC704780B584B08A
:103B800000AF78607B685B6AFB60FB680022DA85C7
:103B9000FB680022DA84F868FFF7CAFF00BF10371D
:103BA000BD4680BD80B485B000AF78607B6893F877
:103BB0003930DBB2212B3ED17B689B68B3F5805F47
:103BC00014D17B681B69002B10D17B681B6AFB60DA
:103BD000FB681B881A467B681B68C2F308025A60A0
:103BE0007B681B6A9A1C7B681A6208E07B681B6A08
:103BF000591C7A6811621A787B681B685A607B6866
:103C0000DB8C9BB2013B9BB27A681946D184002BB6
:103C10000FD17B681B68DA687B681B6822F0800222
:103C2000DA607B681B68DA687B681B6842F04002D8
:103C3000DA60002300E0022318461437BD4680BC3A
:103C4000704780B582B000AF78607B681B68DA6827
:103C50007B681B6822F04002DA607B68202283F8D0
:103C600039207868FFF752FF002318460837BD4611
:103C700080BD80B584B000AF78607B6893F83A303F
:103C8000DBB2222B70D17B689B68B3F5805F17D1C4
:103C90007B681B69002B13D10023FB607B689B6A48
:103CA000BB607B681B685B689BB2C3F308039AB276
:103CB000BB681A807B689B6A9A1C7B689A6226E0C4
:103CC0007B689B6AFB600023BB607B689B68B3F5E5
:103CD000805F07D07B689B68002B0AD17B681B69DB
:103CE000002B06D17B681B685B68DAB2FB681A7030
:103CF00008E07B681B685B68DBB203F07F03DAB225
:103D0000FB681A707B689B6A5A1C7B689A627B68A6
:103D1000DB8D9BB2013B9BB27A681946D185002BA3
:103D200020D17B681B68DA687B681B6822F0200260
:103D3000DA607B681B68DA687B681B6822F4807233
:103D4000DA607B681B685A697B681B6822F0010295
:103D50005A617B68202283F83A207868FFF7DFFEFB
:103D6000002302E0002300E0022318461037BD467E
:103D700080BD000080B584B000AF78607B681B68B0
:103D80001B6923F440517B68DA687B681B680A432F
:103D90001A617B689A687B681B691A437B685B6958
:103DA0001343BB607B681B68DB6823F4B05323F0CC
:103DB0000C037A681268B9680B43D3607B681B6890
:103DC0005B6923F440717B689A697B681B680A43CE
:103DD0005A617B681B682C4A934203D1FFF716FD9A
:103DE000F86002E0FFF7FEFCF860FA6813469B00FB
:103DF00013449A001A447B685B689B00B2FBF3F3A0
:103E0000224AA2FB03235B091901FA6813469B00AF
:103E100013449A001A447B685B689B00B2FBF3F280
:103E20001A4BA3FB02035B09642000FB03F3D31AC4
:103E30001B013233154AA2FB03235B0903F0F00395
:103E40001944FA6813469B0013449A001A447B688D
:103E50005B689B00B2FBF3F20C4BA3FB02035B0914
:103E6000642000FB03F3D31A1B013233074AA2FB81
:103E700003235B0903F00F027B681B680A449A6006
:103E800000BF1037BD4680BD003801401F85EB5193
:103E900070B500250C4E0D4CA41BA410A54209D1F1
:103EA00000F038F800250A4E0A4CA41BA410A542C5
:103EB00005D170BD56F8253098470135EEE756F824
:103EC000253098470135F2E774560008745600080B
:103ED000745600087856000803460244934200D105
:103EE000704703F8011BF9E770B50446013902B9C0
:103EF00070BD234611F8015F561E03F8015B2DB912
:103F00001444A342F4D003F8015BFAE71C4632469E
:103F1000EDE70000F8B500BFF8BC08BC9E4670474E
:0C3F2000F8B500BFF8BC08BC9E46704716
:103F2C004D616E7468616E204A616C007048203877
:103F3C00000000007048203900000000704820315B
:103F4C0030000000704820313100000002030405ED
:103F5C00060708090A0B0C0D0E0F101001020000C9
:103F6C0000000000003E5B4F5B3E3E6B4F6B3E1C07
:103F7C003E7C3E1C183C7E3C181C577D571C1C5E1E
:103F8C007F5E1C00183C1800FFE7C3E7FF001824F5
:103F9C001800FFE7DBE7FF30483A060E262979299F
:103FAC0026407F050507407F05253F5A3CE73C5AD4
:103FBC007F3E1C1C08081C1C3E7F14227F22145FB1
:103FCC005F005F5F06097F017F006689956A60600C
:103FDC0060606094A2FFA29408047E040810207E06
:103FEC00201008082A1C08081C2A08081E1010108B
:103FFC00100C1E0C1E0C30383E3830060E3E0E06D1
:10400C00000000000000005F000000070007001423
:10401C007F147F14242A7F2A1223130864623649E2
:10402C005620500008070300001C224100004122CA
:10403C001C002A1C7F1C2A08083E080800807030CF
:10404C00000808080808000060600020100804023E
:10405C003E5149453E00427F400072494949462144
:10406C0041494D331814127F1027454545393C4AB8
:10407C0049493141211109073649494936464949CF
:10408C00291E000014000000403400000008142217
:10409C004114141414140041221408020159090685
:1040AC003E415D594E7C1211127C7F494949363E86
:1040BC00414141227F4141413E7F494949417F096C
:1040CC000909013E414151737F0808087F00417F77
:1040DC0041002040413F017F081422417F40404075
:1040EC00407F021C027F7F0408107F3E4141413E0D
:1040FC007F090909063E4151215E7F09192946268F
:10410C004949493203017F01033F4040403F1F2092
:10411C0040201F3F4038403F631408146303047869
:10412C0004036159494D43007F4141410204081089
:10413C0020004141417F04020102044040404040C4
:10414C00000307080020545478407F284444383832
:10415C0044444428384444287F38545454180008A4
:10416C007E090218A4A49C787F0804047800447D7E
:10417C0040002040403D007F1028440000417F401B
:10418C00007C047804787C0804047838444444386F
:10419C00FC1824241818242418FC7C08040408484F
:1041AC005454542404043F44243C4040207C1C20A0
:1041BC0040201C3C4030403C44281028444C9090FB
:1041CC00907C4464544C4400083641000000770055
:1041DC0000004136080002010204023C2623263C62
:1041EC001EA1A161123A4040207A385454555921ED
:1041FC0055557941225454784221555478402054D5
:10420C005579400C1E527212395555555939545422
:10421C00545939555454580000457C410002457D91
:10422C00420001457C407D1211127DF0282528F0BA
:10423C007C545545002054547C547C0A097F4932E7
:10424C00494949323A4444443A324A4848303A415E
:10425C0041217A3A42402078009DA0A07D3D424207
:10426C00423D3D4040403D3C24FF2424487E494390
:10427C00662B2FFC2F2BFF0929F620C0887E090303
:10428C0020545479410000447D413048484A32382A
:10429C004040227A007A0A0A727D0D19317D262956
:1042AC00292F28262929292630484D40203808084E
:1042BC00080808080808382F10C8ACBA2F10283482
:1042CC00FA00007B000008142A142222142A140875
:1042DC005500550055AA55AA55AAFF55FF55FF0084
:1042EC000000FF00101010FF00141414FF00101039
:1042FC00FF00FF1010F010F0141414FC001414F74D
:10430C0000FF0000FF00FF1414F404FC1414171039
:10431C001F10101F101F1414141F00101010F00089
:10432C000000001F101010101F10101010F01000C3
:10433C000000FF101010101010101010FF100000D3
:10434C0000FF140000FF00FF00001F10170000FC0E
:10435C0004F414141710171414F404F40000FF00E0
:10436C00F714141414141414F700F7141414171469
:10437C0010101F101F141414F4141010F010F0006F
:10438C00001F101F0000001F14000000FC14000090
:10439C00F010F01010FF10FF141414FF1410101074
:1043AC001F00000000F010FFFFFFFFFFF0F0F0F027
:1043BC00F0FFFFFF0000000000FFFF0F0F0F0F0FBB
:1043CC003844443844FC4A4A4A347E020206060207
:1043DC007E027E0263554941633844443C04407E6E
:1043EC00201E2006027E020299A5E7A5991C2A49E7
:1043FC002A1C4C7201724C304A4D4D303048784872
:10440C0030BC625A463D3E494949007E0101017E5D
:10441C002A2A2A2A2A44445F444440514A444040B0
:10442C00444A51400000FF0103E080FF00000808EF
:10443C006B6B083612362436060F090F060000186F
:10444C00180000001010003040FF0101001F010196
:10445C001E00191D1712003C3C3C3C0000000000E3
:10446C0077FFFFFFFFFB9CE739C403BFFFB8F1FEEA
:10447C003FC7F8FF1EC198330660CC180E1C0F3CCA
:10448C001F3C1E3C1E3C1E781E78FFFEFFFFFFFFEC
:10449C00FFFE1E781E781E787FFE7FFE7FFE7FFE5D
:1044AC003C783C783C783CF03CF03CF03CF0030031
:1044BC001E007801E01FF1FFE7FFBE1EF03BC0CFEE
:1044CC00E03FF87FF07FE01FF00FE03F80FF87FFB9
:1044DC00FEFFF37F807801E007801E007800C01E8D
:1044EC0000FF038606060C0C181838703FC21E3EDF
:1044FC0003F83F83F80F8F187F01C70306060C0CD7
:10450C00181C701FC00F0003D01FF07FE1FFC3E623
:10451C0007800F000F001F003E00FE03FEFFBDFED4
:10452C003FFC3F7C7CFFFEFFFCFFF87EF0FFFFF6BC
:10453C006666070F1F1E3E3C78787870F0F0F0F03E
:10454C00F0F0F0F07878783C3C1E1F0F07E0F0F8A4
:10455C00787C3C3E1E1E1E0F0F0F0F0F0F0F0E1EF2
:10456C001E1E3C3C78F8F0E0018003C003C003C081
:10457C0003C0FFFFFFFF7FFE1FF807E00FF01FF8DF
:10458C001E781C38181801C003C003C003C003C038
:10459C0003C003C0FFFFFFFFFFFFFFFF03C003C00B
:1045AC0003C003C003C003C003C001803E78F3C73F
:1045BC008E1C70E1807FFFDFFFF9FFFF3FFFE0778C
:1045CC00FFF700000E003C007801E003C007001E5E
:1045DC00003800F001C007800F003C007801E003B8
:1045EC00C00F001E007800F003C007801E003C00C6
:1045FC007001E0038003000007E01FF83FFC3FFC64
:10460C007C3E781EF81FF00FF00FF00FF00FF00F3C
:10461C00F00FF00FF00FF00FF81F781E7C3E3FFCF0
:10462C003FFC1FF807E007C01F80FF03FE0FBC0C08
:10463C007800F001E003C007800F001E003C0078FA
:10464C0000F001E003C00781FFFBFFF7FFE7FF80ED
:10465C000FC07FE1FFE3FFEF87DE07F807800F0055
:10466C001E007C01F007C01F007C01F007C01F007A
:10467C007803E07FFFFFFFFFFFFFFF800FC07FF09D
:10468C00FFF8FFFC703E001E001E001E003C03FCE9
:10469C0003F003F003FC003E001F000F000F000F9F
:1046AC00E03FFFFEFFFC7FF81FE000F803F007E09F
:1046BC001FC07780EF039E0F3C1C7870F1E1E38301
:1046CC00CFFFFFFFFFFFFFFE007807FC0FF81FF086
:1046DC001FC03FFC1FFE0FFF07FF83C001E000F06F
:1046EC00007BE03FFC1FFF0FFFC383E000F8003CA2
:1046FC00001E000F000FB80FBFFFCFFFC3FFC07F1E
:10470C008000FC07FC3FF8FFF1F807C01F003C00DD
:10471C00F001E7C3DFC77FCFFFDF8FFC07F00FF09F
:10472C001FE03DE0FBFFE3FFC3FF01F800FFFFFFCD
:10473C00FFFFFFFFFE01E003800F001E003800F0BA
:10474C0001E007800F001E007800F001E007800FE9
:10475C00001E003800700007C03FE0FFE3FFEF834E
:10476C00FE03FC07F80FF01EF078FFE0FF81FF0F4F
:10477C00FF9E0F780FF01FE03FE0FBFFE7FFC7FF46
:10478C0003F8000FC03FE0FFE3FFEFC3DF03BC07FC
:10479C00F80FF01FF03DF1FBFFF3FEE3FBC3E780E6
:1047AC001E007C01F007E7FF8FFE1FF01F800077D3
:1047BC00FFF700000000EFFFEE1C7CF9F1C00000D9
:1047CC00000000F3C78E3C70E1870C0000000080F5
:1047DC0000F000FC00FE00FE00FE00FE00FE007F6C
:1047EC000007F0007F0007F0007F0007F0007C005E
:1047FC00077FFFDFFFF9FFFF3FFFE0000000001F16
:10480C00FFF7FFFE7FFFCFFFF800003C000FC00159
:10481C00FC001FC001FC001FC001FC003F803F805A
:10482C003F803F803F803F800F800380001FC0FF90
:10483C00E3FFF7FFEF07FE03DC07800F007C03F8B4
:10484C001FC01E003000600000000007001F003E6B
:10485C00007C00700007E01FE07FE1E1C783CE031E
:10486C00BC07700EE07DC3FB8FF73CEE71DCE3B947
:10487C00C773CEE3FFC3FF83FF0007000E001E02C9
:10488C001E1E3FFC1FF01F800FF8007FF001FFC0C1
:10489C0003FF0001FE0007F8001CF000F3C003CF7B
:1048AC00001E1E00787803C0F00FFFC03FFF01FF11
:1048BC00FE07FFF83C00F3FC1FEFF87FFFE1FF7FE2
:1048CC0003F87FFC0FFFF0FFFF8FFFF83C07C3C01E
:1048DC003C3C03C3C07C3FFF83FFF03FFF83FFFEE4
:1048EC003C03E3C01F3C00F3C00F3C01FFFFFEFF85
:1048FC00FFEFFFFC7FFF0001F8C1FFFC7FFF9FFF74
:10490C00F7E07EF807FE007F800EF0001E0003C06B
:10491C000078000F0001E0003E0003E0077F03E792
:10492C00FFFC7FFF03FFC01FE0FFF03FFF0FFFE323
:10493C00FFFC781F9E03E78079E00F7803DE00F719
:10494C00803DE00F7803DE00F7807DE01E781FBF0E
:10495C00FFCFFFF3FFF07FF0007FFFDFFFFBFFFFD8
:10496C007FFFE3C03C78078F1CF1E3CC3FF807FFD7
:10497C0000FFE01FFC03C78078F18F0C79E00F3C3F
:10498C0001FFFFFFFFFFFFFFF7FFFE7FFFFFFFFFB2
:10499C00FFFFFFFFF3C01E7863CF1E79E3C63FF81D
:1049AC0007FF00FFE01FFC03C78078E00F0001E069
:1049BC00003C001FFC03FF807FF007FC0001FCE0C3
:1049CC007FFE1FFFE3FFFE7F03E7C01EF800EF0032
:1049DC0000F0000F0000F0000F03FEF03FFF03FF9C
:1049EC00F83FF7801E7E01E3FFFE1FFFE0FFF8019A
:1049FC00FE007F0FE3FC7F9FE3FC7F1FC1E03C0FB9
:104A0C0001E0780F03C0781E03C0FFFE07FFF03FE4
:104A1C00FF81FFFC0F01E0780F03C0781E03C3FC7D
:104A2C007FBFE3FFFF1FF7F07F00FFFFFFFFFFFFDC
:104A3C00FF07801E007801E007801E007801E00768
:104A4C00801E007801E00783FFFFFFFFFF7FF80166
:104A5C00FFE03FFC07FF80FFF000F0001E0003C0EA
:104A6C000078000F0001E0003C38078F00F1E01ED9
:104A7C003C03C780F8F83F1FFFC3FFF01FFC007E0C
:104A8C0000FF0FCFF9FEFF9FEFF8FC3C1F03C3E0C4
:104A9C003C7C03CF803DF003FE003FF803FF803EDB
:104AAC007C03C3E03C1E03C0F03C0F0FF87EFF8775
:104ABC00FFF87F7F03E0FFC03FF00FFC03FF001EF9
:104ACC0000078001E00078001E00078001E00078FC
:104ADC00001E018780F1E03C780F1E03FFFFFFFFF3
:104AEC00FFFFFF7FFFC03E00F8FC01F9FC07F3F865
:104AFC000FE3F83F87F07F0FF1FE1FE3FC3DE778F3
:104B0C007BDEF0F7BDE1E7F3C3CFE7878F8F0F1F95
:104B1C001E1E1E3C3C0079FF07FFFE0FFFFC1FF71B
:104B2C00F01FC0FC1FEFE1FFFE1FFFF1FF3F83C32F
:104B3C00F83C3FC3C3FC3C3DE3C3DE3C3CF3C3C782
:104B4C00BC3C7BC3C3FC3C3FC3C1FC3C1FCFF8FC4B
:104B5C00FF87CFF87C7F03C001F8007FE00FFF8157
:104B6C00FFFC3F0FC7C03E7801EF801FF000FF0035
:104B7C000FF000FF000FF000FF801F7801E7C03E30
:104B8C003F0FC1FFF81FFF007FE001F8007FF83FE7
:104B9C00FF8FFFF3FFFE3C0FCF00F3C03CF00F3C48
:104BAC0003CF03F3FFF8FFFC3FFE0FFE03C000F042
:104BBC00003C003FF80FFE03FF807FC00001F800AF
:104BCC007FE00FFF01FFF83F0FC7C03E7801EF8079
:104BDC001FF000FF000FF000FF000FF000FF801F20
:104BEC007801E7C03E3F0FC1FFF80FFF007FE003E5
:104BFC00F8003F8E07FFF0FFFF0FFFE060787FF8B3
:104C0C0007FFF03FFFE0FFFF01E07C0F01E0780FB2
:104C1C0003C0781E0FC0FFFC07FFC03FF801FFE088
:104C2C000F0F80783C03C0F01E07C3FE1FBFF07F40
:104C3C00FF83F7F80F0007E707FF8FFFC7FFE7C1F8
:104C4C00F3C079E03CF8007F801FFC07FF81FFE098
:104C5C000FFB007FC01FE00FFC1FFFFFBFFF8DFF8E
:104C6C00803F00FFFFFFFFFFFFFFFFFFFF0F1FE174
:104C7C00E3FC3C7F878F60F0C01E0003C00078000F
:104C8C000F0001E0003C00078000F001FFE03FFC5A
:104C9C0007FF807FE0FF0FF7FC7FFFE3FEFF1FF3B2
:104CAC00C01E1E00F0F00787803C3C01E1E00F0FB6
:104CBC0000787803C3C01E1E00F0F00787C07C1F6D
:104CCC0007C0FFFE03FFE00FFE001FC000FF03FD47
:104CDC00FF07FFFE0FFBF81FE1C00703C01E078094
:104CEC003C0780F00F01E00F03801E0F003E1E00FA
:104CFC003C780078F0007BC000F78001FF0001FCDD
:104D0C000003F80003E00007C000FF0FF7FC7FFF73
:104D1C00E3FFFE0FF7800F3C3878E3E3871F1C3866
:104D2C00F8E1EFE70F7F787BBBC3FDFE0FEFF07E62
:104D3C003F03F1F81F8FC0FC3E07C1F03E0F81F01E
:104D4C007C007E0FDFE3FFFC7FBF07E1E0F83E3E17
:104D5C0003EF803DE003F8003E0003C000F8003F85
:104D6C00800F7803C780F8783E0F8FE3FFFC7FFF3E
:104D7C008FF7E0FC7E07EFF0FFFF0FF7E07E1E07DA
:104D8C0081F0F80F0F0079E007FE003FC001F8003A
:104D9C000F0000F0000F0000F0000F0000F000FF0B
:104DAC00E00FFF00FFF007FE00FFFCFFFCFFFCFF25
:104DBC00FCF03CF078F0F070E001E003C0038007F9
:104DCC00000F001E0E1C0F380F780F7FFF7FFF7F28
:104DDC00FF7FFFFEFFFFFEF0F0F0F0F0F0F0F0F0E0
:104DEC00F0F0F0F0F0F0F0F0F0F0FEFFFFFEE0017C
:104DFC00E003C003C0078007000F000E001E001C5C
:104E0C00003C0078007800F000F001E001E003C005
:104E1C0003C0078007800F000F001E001C003C0021
:104E2C003800707FFFFFFF0F0F0F0F0F0F0F0F0FCB
:104E3C000F0F0F0F0F0F0F0F0F0F7FFFFFFF010053
:104E4C0007001F007F00FE03DE0F1E3E3EF83FE012
:104E5C003F8038FFFFFFFFFFFFFFFFFFFFF0C3871F
:104E6C000E1C3001FC01FFC03FFC07FFC000780F97
:104E7C00FF07FFE1FFFC7FFF9F80F3C01E780FCF81
:104E8C00FFFEFFFFCFFFF87F3E7C001F8003F0008A
:104E9C007E0003C00078000F3F01FFF83FFF87FF43
:104EAC00F0FC1F1F01F3C01E7803CF0079E00F3E0A
:104EBC0003E7E0FBFFFF7FFFCFFFF0F9F80003F300
:104ECC0087FFCFFFEFFFF7E0FFC03FC00FE000F020
:104EDC000078003E004F80F7FFF9FFF87FF80FF0E5
:104EEC00000FC000FC000FC000FC0003C0003C031E
:104EFC00F3C0FFBC1FFFC3FFFC7E0FC7807CF00319
:104F0C00CF003CF003CF003CF807C7E0FC7FFFF379
:104F1C00FFFF0FFFF03F3E03F003FF01FFE0FFFC3C
:104F2C007E0F9E01EF003FFFFFFFFFFFFFFFFFFD26
:104F3C00E0007FFFCFFFF1FFF80FF003FC07FF0F3E
:104F4C00FF1FFF1E001E00FFF8FFFCFFFCFFF81EFA
:104F5C00001E001E001E001E001E001E001E00FF74
:104F6C00F8FFF8FFF8FFF807E7C3FFFCFFFFBFFFF0
:104F7C00F7C1F9F01F3C01E7803CF0079E00F3E01D
:104F8C003E3E0FC7FFF87FFF07FDE03F3C00078068
:104F9C0000F0003E03FF807FF00FFC00FE003E009F
:104FAC0003F0001F8000FC0001E0000F000078F807
:104FBC0003DFE01FFF80FFFE07E1F03E0781E03CCE
:104FCC000F01E0780F03C0781E03C0F01E1FC1FD57
:104FDC00FE0FFFF07FBF01F803C003C003C003C086
:104FEC00000000003FC03FC03FC03FC003C003C033
:104FFC0003C003C003C003C003C003C0FFFEFFFF18
:10500C00FFFF7FFE03C03C03C03C0000007FFFFF9E
:10501C00FFF7FF00F00F00F00F00F00F00F00F0093
:10502C00F00F00F00F00F00F01FFFEFFEFFC7F0010
:10503C007C003F000FC003F0003C000F0003C7F0E2
:10504C00F3FC3CFF0F3F83DF00FF803FC00FE0030A
:10505C00FC00F7803CF00F1F0FC3FBF1FFFC7FDF60
:10506C000FE03FC03FC03FC03FC003C003C003C000
:10507C0003C003C003C003C003C003C003C003C00C
:10508C0003C003C003C0FFFEFFFFFFFF7FFE3DE335
:10509C00C1FFFFC7FFFF1FFFFE3E3C78F0F1E3C3EB
:1050AC00C78F0F1E3C3C78F0F1E3C3C78F0F1EFE79
:1050BC003E7FF8F9FFE3E7DF0F1E1E7C03EFF03FA6
:1050CC00FF83FFFC1F87C1E03C1E03C1E03C1E03B5
:1050DC00C1E03C1E03C1E03C7F0FFFF0FFFF0FF768
:1050EC00E07E03F801FFC07FFC1FFFC7E0FDF00767
:1050FC00FC007F800FF001FE003FE00FBF07E3FFD5
:10510C00F83FFE03FF801FC03E7E03F7FC1FFFF03D
:10511C00FFFFC1F83F0F807C7801E3C00F1E0078C1
:10512C00F003C7C03E3F07E1FFFE0FFFE07BFE032D
:10513C00CFC01E0000F000078000FF800FFC007F36
:10514C00E001FE000003F3E07FDF87FFFC7FFFE759
:10515C00E0FC7C03E3C00F1E0078F003C7801E3E0A
:10516C0001F0FC1F83FFFC1FFFE03FEF007E780087
:10517C0003C0001E0000F0003FE001FF800FFC00A8
:10518C003FC07E1E7F3FFFBFFFFFF1FE00FC007C97
:10519C00003C001E000F00078003C00FFF87FFC3F9
:1051AC00FFE1FFE007E61FFE7FFE7FFE781E780E14
:1051BC007FE03FFC03FE601FE00FF81FFFFFFFFEC8
:1051CC007FFC07E00C000F00078003C001E007FF25
:1051DC00F3FFF9FFFCFFFC0F00078003C001E000A8
:1051EC00F00078003C001E078FFFC3FFC1FFC03FDB
:1051FC0080FC1FBF0FEFC3FBF0FE3C078F01E3C029
:10520C0078F01E3C078F01E3C078F87E3FFFC7FFA4
:10521C00F0FF7C0F9E7F07F7FC7FFFE3FEFE0FE1A4
:10522C00E03C0F01E03C1E01E0F0078F003E7800EF
:10523C00F78007FC001FC000FE0003E0001F007E8B
:10524C0003F7F83FFFC1FEFC07F3C70F1E7CF0739A
:10525C00E7839F7C1FFFC0FFFE03F7F01FBF80FC9E
:10526C00F807C7C01E3E00E0E07E0FDFE3FFFC7FC7
:10527C00BF07E1F1F01FFC01FF001FC007F801FFA1
:10528C00C07EFC1F8FC7E0FDFE3FFFC7FFF07F7E97
:10529C000FDFE3FFFC7FBF07E3C0783C0E0783C042
:1052AC0078700F1E00E3801EF001DC003F8003E0ED
:1052BC00007C00070001E00038000F003FF00FFFFA
:1052CC0001FFE01FF800FFFFFFFFFFFFFFF0F9C732
:1052DC00C03E01F00F807803C01E07FFFFFFFFFFE9
:1052EC00FFFF0381F0FC7E1F0781E0781E0781E041
:1052FC00F8FC3E0F83F03E0781E0781E0781F07EBC
:10530C000FC3F0386FFFFFFFFFFFFFFFFFFFFFFF33
:10531C00FFF0703E0FC1F83E0781E0781E0781E078
:10532C007C0FC1F07C3F1F0781E0781E0783E1F8FA
:10533C00FC3F07001E001FC01FF0DFFCFF3FFB0FF0
:10534C00F803F800780000000000000015000100D0
:10535C00000005161508EB000E000B0A1505EC00F5
:10536C001C0010191503EA004E000E1C1504E90070
:10537C007F000F151503EC00A7000F141503ED00AB
:10538C00CD00040A1508EC00D200081B1509EB002F
:10539C00ED00081B1504EB000801100F1503EB00C2
:1053AC00260110131503EE004C01070A1505FD002C
:1053BC00550113041501F5005F0105051508FC00E6
:1053CC0063010F1C1503E900980110171503EA007F
:1053DC00C6010F161503EB00F0010F171503EA00B9
:1053EC001C0210171503EA004A020F151503EC00F6
:1053FC00720211161502EB00A1020F171504EA0038
:10540C00CD020F161503EB00F7020F171503EA0078
:10541C0023030F171504EA004F0305101508F100BC
:10542C00590307161505F1006D0312101501EF0055
:10543C009103130A1501F200A90312101502EF00D3
:10544C00CD030F151504EC00F5030F1B1503EB0032
:10545C002804161515FFEC00620414151501EC0058
:10546C00970413151501EC00C90412151502EC0074
:10547C00F90413151501EC002B0513151501EC009F
:10548C005D0514151501EC00920515151500EC00C1
:10549C00CA050E151504EC00EF0513151502EC00EA
:1054AC00210614151501EC00560612151502EC0018
:1054BC008606171515FFEC00C30614151501EC0034
:1054CC00F80614151501EC002D0712151501EC004A
:1054DC005D07141A1501EC009E0715151500EC005C
:1054EC00D60711151502EC00030813151501EC0075
:1054FC00350815151500EC006D08171515FFEC0097
:10550C00AA0815151500EC00E20813151501EC009E
:10551C00140914151501EC00490910151503EC00BC
:10552C007309081B1509EB008E090F1C1503E90004
:10553C00C309081B1504EB00DE090F0B1503EB0068
:10554C00F309150415000400FE0906061506EA0009
:10555C00030A13101501F100290A13161501EB00AB
:10556C005E0A11101502F100800A14161501EB00E9
:10557C00B70A12101501F100DB0A10161504EB0026
:10558C00070B13171501F1003E0B15161500EB0058
:10559C00780B10161503EB00A40B0C1D1505EB0076
:1055AC00D00B12161502EB00020C10161503EB00B3
:1055BC002E0C161015FFF1005A0C14101500F100EA
:1055CC00820C13101501F100A80C15171500F10031
:1055DC00E50C15171601F100220D11101503F10041
:1055EC00440D10101503F100640D11151501EC009C
:1055FC00910D12101501F100B50D15101500F100EB
:10560C00DF0D15101500F100090E13101501F10036
:10561C002F0E13171501F100660E0E101503F10075
:10562C00820E0A1B1506EB00A40E041B1509EB00D9
:10563C00B20E0A1B1506EB00D40E11081502F3006E
:10564C006C4400085453000820007E002300000026
:10565C000000000000000000010203040607080916
:08566C0000000000010203042C
:0456740035010008F4
:045678001101000814
:0C567C000024F4001000000001000000F9
:04000005080028C106
:00000001FF
